:020000040800F2
:100000001807002055DD00083D0500083D050008E3
:100010003D0500083D0500083D0500083D050008B8
:100020003D0500083D0500083D05000811020008D7
:100030003D0500083D0500083D0500083D05000898
:100040003D0500083D0500083D0500083D05000888
:100050003D0500083D050008010000202D0C0008AA
:100060003D0500083D050008210D00083D0500087C
:10007000D9150008ED1400080D4800083D050008DA
:100080003D0500083D0500083D0500083D05000848
:100090003D0500083D0500083D050008810D0008EC
:1000A0003D0500083D0500083D0500083D05000828
:1000B0003D0500083D050008014000083D05000819
:1000C0003D050008E1470008894E00083D0500088D
:1000D0003D0500083D0500083D0500083D050008F8
:1000E0003D0500083D0500083D0500089D14000879
:1000F0003D0500083D0500083D0500083D050008D8
:100100003D0500083D0500083D0500083D050008C7
:100110003D0500083D0500083D0500083D050008B7
:100120003D0500083D0500083D0500083D050008A7
:100130003D0500083D0500083D0500083D05000897
:100140003D0500083D0500083D0500083DB50008D7
:10015000044A0330136820F0030018441060184666
:10016000704700BF180700200248C0F1005000F59A
:1001700080307047182E0020034B1868C0F10050E3
:1001800000F58030704700BF18070020014A024B7D
:100190001A607047182E0020180700202DE9F14F33
:1001A000C0F800D010468847009A0021116001B0C5
:1001B000BDE8F08F38B5036804461BB3EFF3148332
:1001C0009D0702D5104B186000DFEFF309814FF057
:1001D000FF330B600D4B8B61CB6903F08073CB61F8
:1001E0002268A2F12005680742BFA2F1240543F46A
:1001F0000073CB612846202203F077FF85F309883E
:100200000023236038BD00BF1C070020AE0100089A
:1002100010B5034C2068FFF7CDFF0023236010BD0D
:100220001C07002020F02003413B192B08D9A0F126
:100230003003092B04D9A0F12D03584258417047CF
:1002400001207047F7B5002304460DF1070100684F
:10025000012201F01DFB9DF80730002B00F08A8081
:100260009DF8070003F0C9FF38B120680DF10701C0
:100270000122002301F00CFBF2E7A5689DF807605E
:100280003046FFF7CFFF18B900232B70656813E0E5
:10029000A368EA1AE368013B9A42F5DA05F8016BB4
:1002A00020680DF107010122002301F0F1FAE5E7D2
:1002B000A16803F058FFF0B12E4655F8040B002852
:1002C000F6D10AE00A2BC6D0002BC4D020680DF16D
:1002D00007010122002301F0DBFA9DF807300D2B06
:1002E000F0D1B8E7092B0BD120680DF107010122ED
:1002F000002301F0CDFA9DF80730202BF2D1F3E76F
:100300003D2BF1D0222BA56827D1002320680DF1C9
:100310000701012201F0BCFA9DF807300D2B23D014
:100320000A2B21D0222B1FD0F3B1A268A91AE268B0
:10033000013A914218DA05F8013BE6E7A368EA1AA8
:10034000E368013B9A420FDA05F8017B20680DF162
:1003500007010122002301F09BFA9DF8077038463F
:10036000FFF760FF0028E9D100232B706068301A86
:10037000801001E04FF0FF3003B0F0BD10B5014434
:1003800088420AD010F8013B054C83EA122334F866
:10039000133083EA022292B2F2E7104610BD00BF8A
:1003A00020E0000837B50546002302AC24F8023DE2
:1003B00001F0D4F92046022105F17C0201F0FCF99C
:1003C00003B030BD10B50E4C4FF6FF73B4F87C206F
:1003D0009A420DD12388934210D02378022B04D166
:1003E00020468021FFF7CAFF40B12046FFF7DAFF21
:1003F000044B80349C42E7D1002010BD204610BD44
:1004000000F801080000020870B5A2B0FFF7DAFF9B
:10041000044650B14FF6FF7302889A4205D0264930
:10042000332203F079FE002843D001F097F984B11C
:100430004FF6FF7322889A420FD004F17843A3F558
:10044000FC33B3F5F06F04D22046FFF7ABFF8034E6
:1004500003E01A4801F09CF9184C802202A8002100
:1004600003F00BFE144B02AA03F130061546186880
:100470005968083303C5B3422A46F7D14FF6FF72D5
:1004800019889B7802A82980AB707E21ADF8842062
:10049000FFF774FF40BA22AD25F8820D7C2102A837
:1004A000224601F089F92846022104F17E0201F07A
:1004B00083F922B070BD00BF2007002000F80108BA
:1004C00008B5FFF77FFF38B14FF6FF7302889A42F5
:1004D00002D0BDE8084065E708BD70B5FFF772FFC0
:1004E000014630B103884FF6FF70181A18BF01207B
:1004F000FFE70F4A0F4B144603F1300553F8046B26
:10050000AB4242F8046BF9D11D889B78158093703B
:1005100068B162784B789A4228BF1A46022A06D9F7
:10052000BDE8704004480231023A03F0BFBD70BD1F
:100530002007002020E20008220700202DE9F04FCC
:10054000684603F087BC000001784278FF2916BF97
:10055000436A012393F82D328370013B03EA0200C2
:1005600000EB4100704772B6084B9A79197922F076
:1005700002029A71064A136823F48073136019B15A
:10058000044B4FF480721A6162B670475407002022
:1005900008000020000C014010B5194CE36AE36428
:1005A0006379EBB9237A1BB1164B93F82F30BBB9A3
:1005B00072B6A379144A43F00203A3711368217938
:1005C00043F48073136019B1104B4FF080721A61BD
:1005D00062B6E16C0E4801F58C41503103F0C1FC6C
:1005E000A36A07481B78022B09D0BDE81040436A74
:1005F0002C30D3F8F812036A194403F0B2BC10BDD2
:10060000540700202007002008000020000C0140B3
:1006100090070020144A92F854301146042B22D13E
:1006200072B6124B124A00280CBF10461846114AE7
:100630006FF009039B1A03445B08D08843F46043BE
:10064000984204D0D380BFF34F8FBFF36F8F0A4A15
:10065000136843F0080313600B791BB1074B4FF489
:1006600000221A6162B6704754070020050100207D
:100670008D0000200000002008000020000C014038
:1006800010B5037A0446022B02D0042B2FD010BDE4
:100690000AF002FF2378627A532B02D90AB9542355
:1006A000237020462378002A14BF0122FF2213441E
:1006B00000F8103BE16801F5D23101F5F07103F06B
:1006C00050FC237883B972B6A3790F4A43F0040330
:1006D000A3711368217943F04003136019B10B4BE8
:1006E0004FF480021A6162B60423237210BD0834ED
:1006F0000023D4E84F1F0022042908BFC4E8423F6A
:10070000002AF5D110BD00BF08000020000C0140F8
:100710002DE9F341A44C0546A36A1A78032A00F296
:100720003E81DFE812F00400830008012801037A0B
:100730009E4F13F0040F0BD0C66803F093FB06F531
:10074000D23606F5F076361ABE42B8BF3E4600E015
:100750003E462B7A990740F022816B79E76C13B102
:10076000914B1E6A03E003F07DFBC01B06446B6ADD
:10077000D3F8F802B6FBF0F300FB136628460196A7
:10078000FFF7E2FE019BB0F5FF7F4FEAC303064689
:10079000019315D3AB791A0712D50AF045FF78B942
:1007A00072B6AB79824A23F00803AB7113682979DA
:1007B00023F02003136011B17E4B20221A6162B630
:1007C000686AB1B201AA0AF051FD08B10120E7E060
:1007D00001986B79C0080190DFF8CC81A06583B9DE
:1007E0000744C8F85C7003F03DFB381A0028BFBF0F
:1007F0006B6AD3F8F822D8F85C309B18B8BFC8F8F9
:100800005C30A36A01221A702B7A9B0703D0A36A7B
:1008100003221A70C3E02846FFF796FE8642F6D1FF
:10082000614B1B6E1B78002BF1D1B8E0588899887A
:100830000138401AC1F58062C0F3090092B28242C9
:1008400028BF02465AB103EB4101606A06310AF043
:1008500099FDA26A93881844C0F309009080A16AA8
:10086000514A8B8849885B1A40F2FF31C3F3090370
:100870008B4260D15379CBB9D66D03F0F3FA4E4B6E
:10088000301A0938984202DD0123637121E04AF6EB
:10089000C87398424FDC002801DD03F08FFAE66D43
:1008A00003F0E0FA301A6430EEDB12E0137A83B121
:1008B000D66803F0D7FA4AF6C87306F5D23606F5BD
:1008C000F076301A0938984235DC002801DD03F053
:1008D00075FA6379344E5BB106F12C0003F06EFBC0
:1008E00072B603F0BFFAB36DC01A0023F0647371DF
:1008F00072B6A36A1A78032A01D162B61BE00222FB
:100900001A702E4B012200215A6119611A60264B80
:100910001B7923B12A4807211A2203F070FA00221A
:10092000284BD3E84F0F0021042808BFC3E8412F0C
:100930000029F4D1E1E703F095FA0646686A0AF067
:10094000A9FC48B1A36A5A7832B100225A701E4BF2
:100950004FF40052C3F8002103F084FA0923801BEE
:1009600090FBF3F0636E984219D90F4A98422CBF5E
:100970005066536613E00026144A1E70526B1448EA
:10098000C2F5806292B29A805A8003F017FB6B6ABC
:100990000F48D3F8F812E36C194403F0E2FA002090
:1009A00002B0BDE8F08100BF54070020905F010055
:1009B00008000020000C0140580F02000004004015
:1009C000000801405C07002000E100E00000024058
:1009D00080070020F8B5446AC378B4F8D0520646C0
:1009E00005F00705B3B9214B9B6A1B7853B90C235B
:1009F00003FB05432046B3F87A1200220AF036FCC6
:100A000030B103E0FFF784FE0028F0D00120F8BDEC
:100A10000123F37020460AF0B8FC002720B30C2312
:100A200003FB0545C4F85C72C4F85872D5F87432FB
:100A3000201D1F3323F01F03C4F83C3200F067FF72
:100A400072B6B4F8D032B4F8D42201339BB29A42D1
:100A5000A4F8D03205D1054B1B6E1A78012A18BFB5
:100A60001F7062B60020F070F8BD00BF5407002070
:100A700030B562B61D4B93F86820824217D172B62A
:100A800093F869201D798A42194A146805D044F008
:100A90008004146055B1102404E024F08004146034
:100AA00025B100248022A240124C226162B693F844
:100AB0006A300E4A834217D172B692F86B301079C1
:100AC0008B420B4B1A6805D042F008021A6050B1F5
:100AD000102204E022F008021A6020B1002208234C
:100AE0009340044A136162B630BD00BF5407002032
:100AF00008000020000C014008B503F0B3F9084AD3
:100B0000D36CC01A536A20EAE070D3F8F812B0FB35
:100B1000F1F301FB130001231062537108BD00BF04
:100B20005407002010B50F4CA36A1A7802F0FF0199
:100B3000BAB1032202291A7013D112220A480721DE
:100B400003F05DF9094B00221A60094B93F823204A
:100B50003AB962792AB993F82F3013B1BDE8104041
:100B6000CAE710BD540700200008014000040040FF
:100B70002007002038B5264C236E1A7802F0FF01BA
:100B8000002A44D0032942D003221A70214B0022AC
:100B90001A621A60204B4FF48052C3F80021FFF70D
:100BA000ABFFE26E1D49B2F8D432086A0C2503F09F
:100BB000070105FB01210133C0F58060A1F878022F
:100BC000A2F8D432164B93F82F3003BB72B6A37938
:100BD000144A43F00203A3711368217943F480732C
:100BE000136019B1104B4FF080721A6162B6012385
:100BF00084F85030084B4FF40062C3F80421636A54
:100C0000D3F8F832A3F52F33A3F54873236238BD28
:100C100054070020002C014000E100E000000240E9
:100C20002007002008000020000C014070B5364B62
:100C300002225A61D3F80864D3F8085816F001006C
:100C400061D1324CA379DB0709D5A36A3BB172B6F7
:100C5000A379014623F00103A371FFF709FFB00751
:100C600051D5237A99074ED1284B1B6E23B11B789F
:100C7000013B012B00D870BD05F0010282F0010399
:100C8000012A2178637218BFFF2399423BD003F0F9
:100C9000E9F801222272A2791C4B5207E0600FD5BD
:100CA00072B69A79197922F004029A71184A136877
:100CB00023F04003136011B1164B40221A6162B653
:100CC000A36A124DCBB1FFF72DFF134B93F82F30D2
:100CD0009BB972B6AB790E4A43F00203AB7113684D
:100CE000297943F48073136019B10A4B4FF0807275
:100CF0001A6162B6012384F85030084B4FF4006249
:100D0000C3F8042170BD70BD0004014054070020E9
:100D100008000020000C01402007002000E100E056
:100D200030B5134B134A9C68134B55781B7F03EB6C
:100D3000C300124B1021596103F500639B684B40BF
:100D4000C3F30013AB4211D001F1E0218968611AAD
:100D500021F07F418142ECD35370936A33B1054B4C
:100D60009B78022B02D1BDE83040DBE630BD00BFEE
:100D700010E000E05407002020070020000401409C
:100D800070B52C4B4FF400722B4C5A61A3791907A4
:100D90004FD42A4B9B689A0503D4294B9B68DB07E9
:100DA00002D5BDE87040E5E6FFF7BCFE216E0A788B
:100DB00002F0FF035AB1022B3BD9032B07D1E26E9D
:100DC000B2F8D432B2F8D0229B1A072B31D81D4B7F
:100DD00001220A700026032119625A611E611A60FD
:100DE00003F040F8E36C0C25C01A636A20EAE07057
:100DF000D3F8F822B0FBF2F302FB1300E26EC0005E
:100E0000B2F8D43203F0070305FB0325C5F87002DE
:100E10000948FFF799FB6671A5F87A0200220A4B90
:100E2000D3E84F0F0021042808BFC3E8412F002951
:100E3000F4D170BD0004014054070020000C0140B3
:100E400000080140002C01405C07002070B5364CC2
:100E5000A36A002B67D072B6A379042023F0100395
:100E60000021A371FFF704FE72B6A379217943F044
:100E70000803A3712D4B1A681E4642F020021A6027
:100E800019B12B4B4FF400121A6162B672B6A379F6
:100E9000002123F020030520A371FFF7E9FD0020C6
:100EA000FFF7B8FB234B4FF40052C3F88020BFF389
:100EB0004F8FBFF36F8F4FF48052C3F88020BFF382
:100EC0004F8FBFF36F8FFFF72DFEFFF753FE1A4BC7
:100ED00000251D631948DD6103F070F865716562D6
:100EE0006566E5662566A56284F85050144803F0EF
:100EF00065F872B6A379227923F00203A3713368EF
:100F000023F4807333601AB1094B4FF480721A6175
:100F100062B672B6A379002043F00103A3710121E8
:100F2000BDE87040A4E570BD540700200800002013
:100F3000000C014000E100E00000024080070020BA
:100F400090070020F0B5354B9878FF2801BF344A50
:100F50009068C0F3400080F0010072B6314993F808
:100F6000312081F8540012B1013AD2B203E02E4A86
:100F7000125C02F00F0293F8323013B1013BDBB286
:100F800002E0294B1B5C1B09284E88794FEAD21ED0
:100F900002F07F02356881F8682040FA02F2DF092A
:100FA0008EEA020203F07F03184125F0880412F054
:100FB000010F346080EA070018BF44F0800481F814
:100FC0006A3018BF3460C30748BF3368184844BF4D
:100FD00043F008033360174B81F869E081F86B70C8
:100FE0001B1A5B08C48843F460439C42324604D019
:100FF000C380BFF34F8FBFF36F8F0B7943B113687B
:10100000074A25EA030123EA05031B041161136162
:1010100062B60020BDE8F040FFF7FCBA20070020D0
:10102000000C01405407002054E200080800002092
:10103000000000208300002070B5FFF783FF6B489D
:101040000021042202F0DBFE69480121042202F0A3
:10105000D6FE67480021042202F0D1FE6348092130
:10106000042202F0CCFE042160480A4602F0C7FECA
:10107000604B1B784BB95E480321042202F0BFFE8F
:101080005B480F21042202F0BAFE41F211125A4BC2
:101090005A4E5A611A61DA604FF488529A6040F2EF
:1010A0001323574C514DF36004F11000B3602246F6
:1010B0003360544902F050FF28460721122202F003
:1010C0009EFE28460821122202F099FE284606219B
:1010D000122202F094FE28460521122202F08FFE11
:1010E00028460321122202F08AFE414808210422E8
:1010F00002F085FE3E480721122202F080FE72B601
:10110000A379002043F001030121A371FFF7B0FC94
:1011100072B6A379217943F00803A3713A4B1A6898
:1011200042F020021A60324611B14FF400112961D9
:1011300062B672B6A179207941F00401A1711968F3
:1011400041F04001196018B1284B4FF4800119613A
:1011500062B62E4B03F1100413F8041C13F8030CB1
:1011600001F16041000101F56141C0B281F8000365
:1011700033F8021C264E51B1516113F8041C0125AD
:10118000480901F01F018D4000F1600108E013F8EB
:10119000041C0125480901F01F018D4000F14001A8
:1011A0000433A34246F82150D6D10023194A012125
:1011B00012F823200133500902F01F029140144A13
:1011C000042B42F82010F1D1902382F82B334FF4F6
:1011D0000063536010481149002202F0BDFEBDE8D3
:1011E00070400F480F49002202F0B6BE000C0140CB
:1011F000000801409C0A002000000140000401405A
:101200005407002081060008080000205EE2000864
:1012100000E100E05AE2000880070020990500087C
:101220009007002067050008F8B50D46FEF7AEFFF1
:1012300040F60600FEF78CFF06466F4C00210622A2
:1012400002F01BFF40F60600A662FEF781FF06468D
:101250000021062202F011FF4FF45B702666FEF7B4
:1012600077FF064600214FF45B72E06602F005FF4F
:101270004FF48040C6F83402FEF76AFFC6F8300229
:10128000E66E4FF0FF334FF40050C6F8F432C6F864
:101290004402FEF75DFFC6F84002E66EFEF76CFF03
:1012A000C6F85402E66ED6F85402FEF751FFE76E18
:1012B000C6F8500207F5147307F518760FCB86E8C9
:1012C0000F003846294609F093FEE36E63621B68FF
:1012D0005B6933B995F8073143F0010385F80731AD
:1012E00003E00AF0A1F90028F4D195F80731DA07F4
:1012F00002D4E06E09F0ACFFE36E002199625962FE
:10130000A16A03200870B3F8D8323B4A6B2B08D887
:1013100072B69379052043F0200301219371FFF702
:10132000A7FB0026667102F09DFD344B4FF48872D6
:10133000E0645A60324A802182F80D1370212E4FEA
:1013400082F80C134FF4005111604FF4805111607A
:101350002C4A4FF4C04196629161302111621C21E8
:1013600091634FF48071D16056602C329A63A26A07
:101370004FF6FF710632DA6342F2B7524FF48060E3
:1013800058631A63204A4FF4007E9662D1620121AD
:101390009161C2F80CE0566034325A62226E063215
:1013A0009A6242F2A7521862DA6172B6A3790420F7
:1013B00043F01003A371FFF75BFBE36ED3F8F80271
:1013C000124B984294BF00200120FFF723F995F8B3
:1013D0000731DB070FD472B6BB790D4A23F008033F
:1013E000BB711368397923F02003136011B1094BE5
:1013F00020221A6162B6F8BD5407002000000240A6
:1014000000E100E000040040002C0140E03229002F
:1014100008000020000C014098B90A4B197081B9EE
:1014200072B69A79197942F004029A71064A1368E1
:1014300043F04003136019B1044B4FF480021A616A
:1014400062B670475407002008000020000C0140DD
:1014500030B5094C25780570A078451E6078284085
:10146000087021791170226E1AB11278003218BFFB
:1014700001221A7030BD00BF540700200448054AFD
:10148000036E1978044B002908BF1346184700BFA4
:101490005407002011070008D509000838B5124C80
:1014A000237A012B0DD104F1100002F087FDE168D1
:1014B000022301F50C5104F110002831237202F0CF
:1014C00050FD94F85030084D6BB1002385F8503032
:1014D00002F0C8FC00F58C51143105F13C00BDE868
:1014E000384002F03EBD38BD54070020F8B5354BFA
:1014F0004FF48072344C5A60A26A117802295FD18D
:1015000095885B6BEE43C3F580639BB21E44C5F5C3
:101510008065C6F30906ADB2B54228BF3546538093
:10152000002D4DD0606A09F033FFA36A2A469988DE
:10153000074603EB4101606A063109F023FFA26A06
:10154000A84293880344C3F30903938002D0012384
:10155000537006E0B0421EBF1C4B4FF40052C3F85C
:101560000021606A09F014FFB84229D202F07AFC27
:10157000174B0646DA6A5D6A03F5FE335B6BA06AB9
:10158000C3F5806341889BB28B4201D04380EDE775
:101590008188551B8B4208D000EB4302D28801336F
:1015A00001321544C3F30903F4E7606A09F0F0FE61
:1015B000291A06EBD1010748BDE8F84002F0D1BC7A
:1015C000F8BD00BF000002405407002000E100E029
:1015D00000040040800700202DE9F74F554BDA6EDC
:1015E00092F8FC12B2F8D892D2F83082D2F8345283
:1015F000514A009110215160196E0978002900F0BC
:101600009580166ADC6ED3F860E0B4F8D222B4F8A4
:10161000D412AD0891421EBF02F007010C224A43CA
:1016200009EB59011BBF02F51C7C1219C6F5806637
:10163000B2F8786289B2BEF80420D4F83832D4F80F
:10164000F402BEF8027006BFB6B24FF0000CA4441C
:10165000013D0191B74244D00EEB4701B1F806A01D
:10166000C2EB0A0292B201994FEA400B8A4203F19F
:1016700001010ED9C9EB020211F01F0F92B25846B8
:1016800005D19BFA8BFB05EA531348F823B00B46B0
:10169000E9E7009A4BF00100012A07D0022A12D193
:1016A000264B984208BF21F01F010CE02BF42A5270
:1016B00022F02B02DFF888B042F001025A4502D135
:1016C0001E3B43F01F01CB0605D102BA4B1E05EAB3
:1016D000531348F823200137C7F309070B46524636
:1016E000B8E7D9061F4609D0594201F01F0100FA98
:1016F00001F109BA05EA531548F82510BCF1000FAD
:101700000CD0CCF80430B4F8D2221F330132A4F844
:10171000D22223F01F074FF0FF300022C4F8F4025A
:10172000C4F83872AEF80260AEF8042003B0BDE829
:10173000F08F00BF54070020000002408944894414
:1017400015505555044AD36813F00103FAD13421DA
:10175000D1601361704700BF00200240094B1A6836
:1017600042F001021A601A68910701D400BFFAE73B
:10177000054B1A69120641BF044A5A6002F18832C9
:101780005A60DFE700100240002002402301674555
:1017900010B50446FFF7D6FF064B1A6942F0020265
:1017A0001A615C611A6942F040021A61BDE810409A
:1017B000C8E700BF00200240F8B505460E461746B0
:1017C000FFF7C0FFAC1EB31E1B1BDD420BD0064A49
:1017D000136943F00103136134F8022F631BDA53DA
:1017E000FFF7B0FFEFE7F8BD00200240044B1B6895
:1017F00020B1044A1070181FFEF7DCBC704700BF10
:1018000010000020C4070020034610B5074C0A460C
:101810002068011D21601946FEF7C0FC23680022E4
:10182000043B2360024B18781A7010BD1000002092
:10183000C4070020DAE770B506460D46144609F0E5
:10184000F3FE08B104F0010422463046294605F0B3
:1018500031F8031F012B044601D9FFF7C7FF2046CB
:1018600070BD70B506460D46144609F0DDFE08B1A0
:1018700004F0010430462946224605F01BF8BDE875
:101880007040B3E708B505F0CEFABDE80840ADE713
:10189000F7B51C4601AB15460F4605F002F9019A53
:1018A00006460CB1226006E0AA4204D2B8182146CE
:1018B000AA1A02F0E2FB3046FFF798FF03B0F0BD32
:1018C000F7B506460F4615461C4609F0ADFE10B1A9
:1018D000DCB1256019E0736A2BB9F36872699B1A51
:1018E0009D4228BF1D46304639462A4601AB05F0C9
:1018F00085F914B1019B236005E020B90198A84245
:101900002CBF20461E20FFF771FF03B0F0BD08B5C5
:1019100005F03CFABDE8084068E710B5044609F058
:1019200083FE18B9204605F06CFC00E00020BDE8FD
:1019300010405BE708B5436A1BB9C368994228BFEA
:10194000194605F0ADFABDE808404FE708B505F0C7
:1019500043FBBDE8084049E708B505F074FBBDE866
:10196000084043E708B505F077FBBDE808403DE7D0
:1019700008B505F0ACFBBDE8084037E708B505F051
:101980008FFBBDE8084031E708B505F059FABDE81E
:1019900008402BE738B50446037818496E2B0ABF78
:1019A000802000200134C5B2204602F0DCFBE8B103
:1019B0002046134902F0D7FBB0B12046114902F08E
:1019C000D2FB98B12046104902F0CDFB80B12046F1
:1019D0000E4902F0C8FB68B120460D4902F0C3FB76
:1019E000B0FA80F0400906E0072004E0872002E01A
:1019F000052000E00620684038BD00BF84A2010831
:101A000088A20108FEA301088DA2010891A2010885
:101A100096A20108024B00211868FFF78BBF00BF98
:101A2000D007002038B5184D296801F50A7001F576
:101A30001771FFF797FF2C6894F8720218B32E28DD
:101A4000F1D094F864329A07EDD4DB0614D50F4B2D
:101A50001B78012B10D195F8C83204F2722523B9F6
:101A600028460B4902F07FFB30B12846094902F0B5
:101A70007AFB08B1012038BD04F5177009F0FAF9B6
:101A80000028D0D0F6E738BDD0070020200D002078
:101A90009AA201089DA201087FB5534B04AC0FCB5D
:101AA00004E90F00514C94F8CC325BB903F1804348
:101AB00003F584339A6892065FBF012284F8C92235
:101AC00010221A614A48B4F8CE2283684949C3F308
:101AD000002343EA42039BB2A4F8CE3233B991F813
:101AE0002130022B14BF0122032200E00022836870
:101AF000B4F8D052C3F3C01343EA45039BB2A4F831
:101B0000D03233B991F82130022B0CBF04230223C9
:101B10001A438368B4F8D252C3F3801343EA4503EF
:101B20009BB2A4F8D2320BB942F00402836891F858
:101B3000271094F8D402C3F3812343EA800301F011
:101B4000030104A800EB810103F00F0351F8105CBE
:101B500084F8D4325B00DD40274B05F0030518788C
:101B6000224E012845EA020530D1224B997D4A1EBA
:101B7000D2B2FD2A2AD896F8D532012B0AD002D348
:101B8000022B0FD022E00DB386F8D502002502F01B
:101B900099FF1BE015B9022386F8D5320025C4F859
:101BA000D85213E015B10023C6F8D832D4F8D822A1
:101BB000531CC4F8D832C8234B439A4206D30020A2
:101BC00002F080FF094B002283F8D522D4F8E012FE
:101BD0000A4801F52F41C83184F8DC5204B0BDE851
:101BE000704002F0BEB900BF6CE20008D0070020D0
:101BF0000010014020070020200D0020B00A002026
:101C000070B5184CA4F8F402A4F8F61204F5847028
:101C10004FF48071B4F8F052B4F8F26202F08AFA2C
:101C2000114B1A78801A20EAE07080B2A4F8F20210
:101C300028B1B4F8F43213B91044A4F8F202B4F89D
:101C4000F232B4F8F0229A420BD9064AB2F8F422E2
:101C500022B923B1AD1B2B449BB200E00023A4F8B2
:101C6000F03270BDD0070020280E002008B509F022
:101C7000CBFC18B1044B93F8C93223B1BDE808403E
:101C80000120FFF7D7BD08BDD00700200D4BDA8833
:101C9000904214D893F8CA22D2070ED5B0F57A7FB5
:101CA0000DD203EBD00300F007011B7A80220A411A
:101CB0001A4214BF01200020704701207047002005
:101CC000704700BFD007002010B50D4B19780129CF
:101CD00014D10C4B0C4C1B780A46102B0B4B88BFB5
:101CE000082093F80F3298BF072013F0010F084B1C
:101CF00018BF2346BDE8104002F07EBE10BD00BFF5
:101D0000200D0020280E002067A50108D007002024
:101D1000C1A2010870B513468A7900F10C05C270A2
:101D20008A6804464260CA68342182602846114AA3
:101D300001F0B8FF28462E2102F023FA054688B1AB
:101D4000034633F8012F661E22809B7802342370ED
:101D500016F8010F02F029FAA6423070F8D10023DC
:101D60002B7070BD20462946BDE87040032202F06A
:101D700084B900BF8BA3010813B5044669460A481D
:101D8000082202F018FA6846214602F0ECF938B150
:101D90000648214602F0E7F9B0FA80F0400900E079
:101DA000012002B010BD00BFD8080020D8090020D3
:101DB000094B1B78012B0DD1084B0022C3F8D82208
:101DC000022283F8D522064B987D003018BF0120EF
:101DD00002F078BE704700BF200D0020D007002021
:101DE0002007002010B56F4B8EB01B78012B07D059
:101DF000022B40F0D5806C4B988803F08BF9CFE034
:101E0000694C04F5847003F0B9FA1921674A04F5A6
:101E1000847307A801F046FF00204FF0FF3207ABA4
:101E2000014602F0E9FD94F80F32DA0668D4604802
:101E3000FFF7A2FF002865D15E48FFF79DFF00284D
:101E400062D15D48FFF798FF00285FD15B48FFF73C
:101E500093FF00285CD15A48FFF78EFF002859D124
:101E60005848FFF789FF002856D15748FFF784FFED
:101E7000002853D15548FFF77FFF002850D1544820
:101E8000FFF77AFF00284DD15248FFF775FF002871
:101E90004AD15148FFF770FF002847D14F48FFF75C
:101EA0006BFF002844D14E48FFF766FF002841D160
:101EB0004C48FFF761FF00283ED14B48FFF75CFF1D
:101EC00000283BD14948FFF757FF002838D1484840
:101ED000FFF752FF002835D14648FFF74DFF002895
:101EE00032D14548FFF748FF00282FD14348FFF77C
:101EF00043FF434A434B002814BF1846104626E0D0
:101F0000414824E0414822E0414820E041481EE0A9
:101F100041481CE041481AE0414818E0414816E0B9
:101F2000414814E0414812E0414810E041480EE0C9
:101F300041480CE041480AE0414808E0414806E0D9
:101F4000414804E0414802E0414800E04148424A3B
:101F5000E1881278A388102A8CBF032201228DE821
:101F600006003E4A0390029294F8C82207A8049201
:101F700019213B4A01F096FE94F8CA32DB0706D5D8
:101F800007A8442102F0FDF808B1002303700020E7
:101F900001214FF0FF3207AB02F02EFDFFF708FFE3
:101FA0000EB010BD200D0020D00700208BA301082B
:101FB000F6A20108FAA20108FEA2010802A3010884
:101FC00006A301080AA3010872A401080EA30108D0
:101FD00012A3010816A301081AA301081EA30108F1
:101FE00022A3010826A301082AA301082EA30108A1
:101FF00032A3010836A301083AA301083EA3010851
:10200000AAA20108F2A20108A6A20108AEA2010834
:10201000B2A201088EA70108CAA40108B6A201084D
:10202000BAA20108BEA20108C2A20108C6A2010804
:10203000CAA20108CEA20108D2A20108D6A20108B4
:10204000DAA20108DEA20108E2A20108E6A2010864
:10205000EAA20108EEA20108280E0020C1A2010890
:1020600043A3010830B5054689B00DF109010DF112
:102070000A0202A80DF10B03FFF7EAF99DF8081018
:102080009DF80920632928BF6321012A28BF012266
:102090008DF808108DF80920224C85B994F8FC328F
:1020A0008B420CD194F8FD32934202D09DF80A3055
:1020B0002BB99DF80B0094F8FE32984230D094F87A
:1020C0000F32DB0706D49DF80B30002B14BF5723CB
:1020D000202300E02A238DE8060003A81121124ADC
:1020E00001F0E0FD114B01211B784FF0FF32102B66
:1020F00088BF082003AB98BF072002F07DFC0C4B83
:10210000DB7D0BB1FFF754FE9DF8083084F8FC32FC
:102110009DF8093084F8FD329DF80B3084F8FE32CA
:1021200009B030BDD007002057A30108280E0020B9
:102130002007002070B51E4C054694F8CA32DA0715
:1021400034D41C4A967F8EBBC3F3800383422DD0C8
:10215000D4F82032206818490322C4F81833FFF756
:1021600080FBFFF757FC2068C16845B1FFF7E2FB31
:102170002068124903223346FFF7A2FB07E0033928
:1021800021EAE171FFF7D6FB2068FFF7C6FBFFF7F6
:1021900041FC2068FFF776FBD4F82432C4F81833EA
:1021A00094F8CA3265F3820384F8CA3270BD00BF66
:1021B000D00700202007002064A3010870A30108B5
:1021C00010B5154B1C78012C0DD0022C22D102F039
:1021D00021FFBDE81040114B114A03280CBF1046E7
:1021E000184602F02BBF02F059FC002001460246BF
:1021F0000C4B02F001FC0020214602460A4B02F083
:10220000FBFB204621460022084B02F0F5FBBDE80F
:102210001040CDE510BD00BF200D00209AA201089E
:1022200074A3010878A3010884A3010862A7010828
:1022300070B51D4C82790B4684F80F2282684FF4EA
:102240008071C4F81022C268C4F81422026AC4F86B
:102250001822426A04F58470C4F81C22134A01F063
:1022600021FD04F584702E2101F08BFF054604F555
:10227000027095B107210D4A6B1C01F013FD04F2A9
:10228000072604F20E2416F8010F01F08EFFA64275
:102290003070F8D100232B7070BD2946BDE8704026
:1022A000072201F0EABE00BFD00700208BA301087F
:1022B000024670B5144C00F10C0300F13C062546B3
:1022C00018685968083303C5B3422C46F7D118681B
:1022D0000E4B0021286083F83C119078148883F815
:1022E0000A02A3F8084283F80B12D07883F80F0291
:1022F0005068C3F810029268C3F81C12C3F8142285
:10230000C3F8181270BD00BFD8080020D007002005
:1023100038B5054600200446AC420CDA074B23448E
:1023200093F8043143B118B9184602F065FF00E094
:1023300000200134F0E738BD184638BDD40700202E
:1023400070B5394D8CB0D5F8F8322C46002B69DCCD
:10235000B5F8F222002A65D042F22833B5F8F61219
:10236000B5F8F4624B43C5F8F83246B3B5F8F0322D
:1023700005A801339BB2934288BF0023A5F8F03231
:10238000B4F8F032284D19212B44284A03F5847300
:1023900001F088FCB4F8F00218B1B5F8F2328342CB
:1023A00006D142F22833B4F8F4225343C4F8F83289
:1023B000FFF7AEFF78B320238DF814302BE0B5F88B
:1023C000F0321B4801339BB29342A5F8F03205F579
:1023D00084710ED804222B4400920190029105A82A
:1023E0001921144A03F5847301F05CFCB5F8F0027E
:1023F000DEE7D31A8DE803000F4A043305A819213C
:1024000001F050FCB5F8F032B5F8F2229B1A042B1B
:1024100008BFA5F8F062002001464FF0FF3205AB7F
:1024200002F0EAFA0CB070BDD00700208BA30108BF
:10243000C1A2010886A3010888A301082DE9F84379
:10244000174907460020FEF7EFFE01F00BFD04469A
:10245000144D154E96F8DC32DBB23B70EBB9FFF74A
:102460000DF88046C8B901F0FDFC104B81461B7881
:10247000012B0ED1041B2D1B002D03DC4046FFF762
:10248000F1FD084DD6F8F8321B1BC6F8F832FFF7FD
:1024900057FFFFF7EBFB4C46DBE70020BDE8F88376
:1024A000D808002020BF0200D0070020200D002007
:1024B00070B504460D46164600214FF40A7201F02D
:1024C000DCFD0C4B03F540722260B3F80633A380A9
:1024D00095F80731A371D5F80831A360D5F80C3110
:1024E0002674E360D5F810312362D5F814316362A5
:1024F00070BD00BFD00700202DE9F0419E4CB4B064
:1025000094F8CA320546DE0740F1D0819B4B022881
:1025100093F8221014BF4FF001084FF0030801296F
:102520001E464BD1D4F8202201288DF89710C4F80C
:10253000182302D002281ED03BE09B7F0022022BF2
:10254000A28036D020688E492A46FFF774F90646E5
:1025500078BB0EA90A2233462068FFF799F9206854
:10256000FFF790F90EA831460A228DF8416001F07C
:102570004EFEA0801DE09E7FDEB9A3880A21814A1D
:102580000EA801F08FFB122220687D49FFF769F940
:102590000A210EA8276801F0CDFD0EA90246334698
:1025A0003846FFF78DF92068FFF7B7F92068FFF785
:1025B00069F9D4F82432C4F81833F2E004F1C50004
:1025C000FFF776FE276804F5847138464246FFF728
:1025D0006FFF38461EA958220023FFF759F96A48B1
:1025E0001EA9092201F0B0FD002840F0D180012D84
:1025F0001CD194F8CA22100709D49DF888302BB159
:102600009DF89330C3F58073C3F34703F376D10687
:102610005CBF9DF88A30B375920607D49DF894206C
:1026200022B14EF66023B3FBF2F333839DF8813081
:10263000303B012B02D0022B53D0A9E0012D0FD04B
:10264000A388022D4C4E8DF88F3009D130680021BF
:10265000FFF770F930681EA958220023FFF730F900
:102660009DF88F609DF89730B7B24348A780002B44
:1026700040F09480012D09D19DF88E300830013B47
:1026800020F8023CFF217D2201F0F7FC0FB93F4802
:1026900024E006F108012068C901FFF74BF9002387
:1026A000206804A92622FFF7F3F8069B07AEADF8D1
:1026B00038301B0C8DF83A300DAF0DF13B0332462C
:1026C00003CABA4218605960164603F10803F6D1EE
:1026D00012881A8000238DF855300EA8FFF7E8FD08
:1026E0005CE0012D0ED0A388022D234E329309D138
:1026F00030680021FFF71EF930681EA95822002318
:10270000FFF7DEF8329B9DF897701B4EA380002FD9
:1027100044D1012D13D0A388174E002BB7D0309988
:10272000319AC90002FB031130688901FFF702F9F1
:1027300030680EA940220023FFF7AAF8CDE72F9AB0
:102740003068013AF2802E994902FFF7F3F83146DA
:102750003B4651F8080B7D22FFF79AF8337A63F075
:102760007F033372E6883046FFF790FA0028D2D113
:10277000014B013EDE80F5E7D00700202007002056
:1027800064A3010861A301088EA301085508002075
:10279000002320208DF88730FFF74CF82068FFF7E2
:1027A00071F89DF89730002B75D0012D42D1002192
:1027B0007D22B44801F061FC21680023E38001F52B
:1027C0000A70B14A01F51771B04BFFF7D1F82068D4
:1027D00090F8723253B390F8643203F0100303F0B0
:1027E000FF05DBB900F2762300F27A2113F8012B02
:1027F000303AD6B2092E11D80A268B4206FB05259F
:10280000F4D11A782E2A09D1B5F57A7F06D25A1C4E
:10281000043312F8011B002940F07E81216801F584
:102820000A7001F51771FFF7A9F8D0E700F50A70F3
:10283000FFF792F81021964AA388684601F032FA11
:1028400021686B4601F50A708F4A01F51771FFF791
:102850008FF820688F4D00F50A70FFF77DF820682B
:1028600090F872323BB9AB8813B91F20FEF7E2FF34
:102870000023A380DEE700F272210122FEF7F1FFC0
:10288000286890F8643200F272218371FFF7D0FC5F
:102890002868FEF7F7FF804DEE1DB54200F0288155
:1028A00015F8010F01F081FC2870F6E701282AD104
:1028B000FF2104F108007D2201F0DFFB94F8C8320B
:1028C0002068003318BF012300F50A706E49E380C9
:1028D000FFF73CF8FFF7A6F8E38810B10133E38077
:1028E000F8E713B92220FEF7A5FFE3882068013B33
:1028F00000F50A70E380FFF72FF8A388E2889A4278
:1029000038BF0023A380654B9B7F002B40F0948051
:10291000022D40F09180D4F82032206860490322D3
:10292000C4F81833FEF79DFFFFF774F82068C168FC
:10293000B1F5007F03D9A1F50071FEF7FBFF206818
:102940004FF4007200F55D710023FEF7A1FF2068CF
:10295000C168B1F5007F8CBFA1F500710021FEF7C1
:10296000E9FF26682F2106F55D77384601F009FC5E
:10297000054628B1411CCB1B71693046194401E062
:1029800030462946FEF7D6FF94F80F22414E02F05A
:10299000100202F0FF077AB3D6F80080414908F22E
:1029A0007227384601F0DFFBB0B915B92120FEF7D8
:1029B00041FF266800232F212B7006F55D7001F082
:1029C000E0FB014620B17369411B1944304600E029
:1029D0003046FEF7AFFF1DE04FF48071384601F03E
:1029E000A9FB3946024600234046FEF769FF3068DE
:1029F0002D49012200230BE036684FF4807106F266
:102A00007225284601F096FB294602463B46304691
:102A1000FEF756FF2068FEF780FFFEF7FBFF2068F9
:102A2000FEF730FFD4F82432C4F8183394F8CA32D1
:102A30006FF3820384F8CA3294F8C85220680035D4
:102A400000F50A70104918BF0125FEF77FFFFEF759
:102A5000E9FF10B1A3889D4212DB206800F50A70DF
:102A6000FEF77AFFA3889D4220DD0A4B0D491D68C1
:102A700005F2722001F091FB102385F8643215E015
:102A80000135E4E7D8070020C1A2010898A3010896
:102A9000A0A30108D0070020D709002020070020AC
:102AA00064A30108ABA30108AEA3010820682B4D65
:102AB00090F8642200F2722312F0100F09D085F80A
:102AC0000F2205F584704FF48071254A01F0EAF871
:102AD0000EE019460122FEF7C4FE286890F8643221
:102AE00000F272218371FFF7A3FB2868FEF7CAFE8C
:102AF00094F80F32DB062DD41A4B93F8283033B1FB
:102B000094F80F3243F0010384F80F3222E008F00A
:102B10008BFD0028F4D11DE09A427FF47AAE137841
:102B2000002B7FF47BAE00F5177008F0A3F90028A6
:102B30003FF474AE04EBD50105F007028023134186
:102B40000A7AADB213430B72E3889D4238BF1D462B
:102B5000E58063E634B0BDE8F08100BFD007002017
:102B60008BA30108200700202DE9F04FA64C9FB051
:102B700094F8DC322BB194F8CA3243F0020384F8A3
:102B8000CA32FDF703FB40F27450FDF7E1FA9F4DA6
:102B90002060AB789E48039394F8CA3295F81AB037
:102BA00003F0FE036FF3820384F8CA32002384F833
:102BB000C832A380D4F81833B5F82590C4F824326D
:102BC00095F8318095F832A004F03AF9D4F818332A
:102BD0002068C4F820328F4B8F49099300F55D734C
:102BE0000A9340F2FF13012208900B93FEF723FE95
:102BF000002840F07C8208A8FDF724FB421C00F06E
:102C000071821B28F7D8DFE810F01C0041009D00FE
:102C1000A300A900B300BA00C400CE00D700E900A9
:102C2000F100F800330145014E0167018501FA0109
:102C300004020F0218022B0233023B024302570226
:102C400063020A9E7549304601F08DFAE0B13046C4
:102C5000734901F088FA90B13046724901F083FA65
:102C600078B13046704901F07EFA60B130466F4964
:102C700001F079FA00280CBF0420FF2004E00120B5
:102C800002E0022000E00320A870B4E70A9E684931
:102C9000304601F068FA00283CD03046654901F022
:102CA00062FA002838D03046634901F05CFA002807
:102CB00034D03046614901F056FA88B33046604955
:102CC00001F051FA70B330465E4901F04CFA58B346
:102CD00030465D4901F047FA40B330465B4901F0A8
:102CE00042FA28B330465A4901F03DFA10B3304653
:102CF000584901F038FAF8B13046574901F033FA33
:102D0000E0B13046554901F02EFA00280CBF0723E8
:102D1000002314E0042312E0012310E00B230EE053
:102D200003230CE002230AE0062308E00A2306E05E
:102D3000082304E0092302E00C2300E0052385F8C2
:102D4000243058E70A98FEF725FE85F8310052E74F
:102D50000A98FEF71FFE85F832004CE70A984049B2
:102D600001F001FAB0FA80F0400985F8280042E746
:102D70000A9800210A2201F04AFA28773BE70A98CC
:102D8000384901F0F0F9B0FA80F0400985F82300E5
:102D900031E70A98324901F0E6F9B0FA80F04009CB
:102DA00085F82F0027E70A982D4901F0DCF9B0FAE1
:102DB00080F0400968771EE70A9E2B49304601F0F3
:102DC000D2F940B13046294901F0CDF900280CBFB5
:102DD0000023022300E00123AB770CE70A980021CF
:102DE0000A2201F014FAA5F81F0004E70A9800214E
:102DF0000A2201F00CFAE874FDE60A9800210A2282
:102E000001F005FA2875F6E6D0070020200700201B
:102E10009AA201087CE20008C0A30108C7A3010828
:102E2000CFA30108D5A30108E1A30108EBA3010882
:102E3000F1A30108F7A30108FCA3010800A40108FD
:102E400008A401080CA4010815A4010819A401088C
:102E50001EA4010825A4010830A4010835A4010816
:102E60003AA401083EA4010847A401084EA40108A1
:102E70000A9EB349304601F076F938B13046B1497F
:102E800001F071F9B0FA80F0400900E0022085F805
:102E90002200B0E60A98AC4901F065F9B0FA80F07A
:102EA00040096875A7E60A9EA849304601F05BF91B
:102EB00060B13046A64901F056F948B13046A549FF
:102EC00001F051F9B0FA80F0400902E0022000E080
:102ED000032085F821008EE60A9E9F49304601F0C6
:102EE00042F988B130469D4901F03DF960B1304664
:102EF0009B4901F038F948B130469A4901F033F95D
:102F0000003018BF012002E0022000E0032085F815
:102F1000270070E600230A9E85F8253085F82630C4
:102F20003378002B3FF467AE33461A781F460133DF
:102F300022B12D2AF9D100223A701F4630468A4923
:102F400001F011F908B9012305E03046874901F085
:102F50000AF928B9022385F8253085F826004CE0C7
:102F60003046834901F0FFF820B9B5F8253043F029
:102F7000040308E030467F4901F0F5F830B9B5F8B0
:102F8000253043F00803A5F8253036E030467A496D
:102F900001F0E9F820B9B5F8253043F01003F2E765
:102FA0003046782101F0E3F838B303464FF0000CC7
:102FB00003F801CB614630460A220593CDF810C0D4
:102FC00001F025F9059BDDF810C00A22064661468E
:102FD000184601F01CF9B5F825309A0707D54028A6
:102FE00005D1664A43F02003A2F8253005E0D90751
:102FF00044BF43EA4616A5F825603E4690E70A9886
:103000005F4901F0B0F800280CBF07230823AB7616
:10301000F1E50A9800210A2201F0F9F894F8CA3281
:10302000A87543F0100344E00A98474901F09BF863
:10303000B0FA80F04009E875DDE50A9800210A221F
:1030400001F0E5F880B263289FBF64232B7600234C
:103050006B7694F8CA3288BF288343F0200328E0B7
:103060000A9800210A2201F0D2F8A5F82D00C2E545
:103070000A9800210A2201F0CAF8A5F82900BAE549
:103080000A9800210A2201F0C2F8A5F82B00B2E547
:103090000A9800210A2201F0BAF8002803DD14285A
:1030A000A8BF142000E0002094F8CA32E87643F06C
:1030B000080384F8CA329EE500211022314800F04E
:1030C000DCFF1021304A0A9B2E4800F0EBFD92E510
:1030D0000A981D4901F047F8B0FA80F0400985F8D8
:1030E000300088E52068FEF7CDFBFDF78DF9AA7862
:1030F0000399224B8A4207D193F83120424503D1EC
:1031000093F83230534501D0FDF71CFF6B7F2BB194
:1031100094F8CA3243F0020384F8CA32AB7E5B45AE
:1031200004D1164BB3F825304B4501D000F088FE92
:1031300095F82230012B29D0022B00F094802CE04E
:1031400053A401085AA401083AA4010862A4010882
:1031500069A4010875A401087BA4010880A40108E2
:1031600088A401088DA4010892A4010896A401086E
:103170009BA40108A2A40108A9A40108200700201B
:10318000B0A40108230700208BA3010894F8CA32D9
:1031900043F0010384F8CA3225E1D4F824322068D0
:1031A000BA490322C4F81833FEF745FBB84F064668
:1031B000002858D107F1C5003968B44AFEF7AAFDC6
:1031C0003346386808A95822FEF762FB9DF83D3067
:1031D0005B070CD5386831461C968DF83760FEF7D2
:1031E000A9FB386808A958223346FEF769FB9DF809
:1031F0003D30A74ED80648BF94F8CA32206844BF75
:1032000043F0020384F8CA32FEF73CFB08A9A14848
:10321000092200F099FF014640B99DF83F302BB1DB
:1032200006F18500402200F028FF15E020689A4949
:103230000122974EFEF7FFFAA8B906F18500316822
:10324000954AFEF767FD96F88830306843F0010331
:1032500086F88830FEF716FB96F8CA3243F0010371
:1032600086F8CA32BFE0AB7F022B00F0BC80D4F8F6
:103270002022002BC4F81823206814BF0122132237
:103280008649834EFEF7D7FA002840F0AC80074607
:10329000D6F82432C6F8183394F8C882206818F19A
:1032A00000084FF0000300F55D714FF4007218BF85
:1032B0004FF00108FEF7ECFAD4F800A000230AF55D
:1032C0005D798AF873354B461E4613F8012B22B1FF
:1032D0002F2AF9D14E454ED14E4694F8C83273B1DB
:1032E0006F4B1B78012B67D1694A938007E016F872
:1032F000010C00F082FF20B1002306F8013D4E458D
:10330000F5D1C9EB0603022B0EDDF71E38466549E1
:1033100000F029FF40B994F8CA3243F0060384F85C
:10332000CA3206F8030C3E464E4507D12068FEF728
:10333000A9FAD4F81833C4F8243254E00AF50A7014
:103340005949FEF703FBFEF76DFB064660B12168A5
:103350004F4F01F2722001F55D7100F004FF18B1CA
:10336000BB880133BB80EEE7206800F50A70FEF7EA
:10337000F3FA0EB3DAE70023337094F8C83206F19B
:103380000109142B02D12320FEF754FA2068464984
:1033900000F50A70FEF7DAFAFEF744FB82460028D1
:1033A00040F0188320683A4E00F50A70FEF7D4FA10
:1033B000BAF1000F40F01B8320680021FEF7BAFA33
:1033C000AB7F1BB9324B1868FEF7A7FA2068FEF7EF
:1033D00059FA94F8CA22002363F3820284F8C832AF
:1033E000A38084F8CA22D4F824320120C4F8183308
:1033F000FFF782F894F80F32D9061FD5FEF7F2FCDA
:10340000234B93F8DC32A2E094F8DC3295F82120CB
:10341000DBB2012A8DF81F3000F09781012000F007
:10342000E9FC013E00F010819DF81F3003F0040319
:1034300003F0FF00002BE7D1FEF77CFE42F22832BA
:103440001346B5F82D00298B434302BF174B1B8B46
:103450005343C4F8F8320023A4F8F232A4F8F0324F
:10346000FEF7CEFBA6883046FEF710FC20BB084BCB
:10347000B3F8068037463846FEF708FCC0B9474522
:1034800007F101030646F5D21F46F4E7B5A401088B
:10349000D00700208EA30108C1A4010864A301087D
:1034A000200D002070A30108C1A201082007002000
:1034B0000220A780FFF720F894F80F32B34E03F0F4
:1034C000100303F0FF02002B44D03068B04900F233
:1034D000722000F048FE96F8C83298B913B921203E
:1034E000FEF7A8F994F8C832013BDBB284F8C83281
:1034F000443304EBC3039A689B89C4F82422C4F8BC
:1035000018231CE0142B02D12320FEF793F994F822
:10351000C822A18802F14403013284F8C82220683D
:10352000D4F8242204EBC30399819A6000F272203C
:10353000FEF72AFAD4F81833C4F824320123012004
:10354000A380FEF7D9FFFEF74DFC94F8DC328DF82E
:103550001F3006E1DFF85C823260FEF743FC98F82A
:1035600000004746012801D1FEF77CFD94F8CA32DD
:103570009A0709D5854A6FF3410382F8CA320423BA
:103580008DF81F30002609E00DF11F018148FEF77C
:103590003BF90646FDF75AFCFEF768FBFCF7F6FD23
:1035A00040F27450FCF7D4FD206026B99DF81F301E
:1035B0005B0740F1D18008A8774900F0EEFD98F84C
:1035C0000030012B11D0022B39D156B11D2E00969F
:1035D00008A84FF01101714A8CBF4523462300F023
:1035E00061FB08A801F02AFD29E05EB16C4BDFF811
:1035F000C8E1009608A811216A4A1D2E88BF7346AB
:1036000000F050FBDFF8B481FEF75EFB98F8003065
:103610000121102B8CBF092008204FF0FF32624B94
:1036200001F0EAF998F800300121102B8CBF0A2034
:103630000820002208AB01F0DFF9FEF7B9FB16BB4A
:103640000120FEF777FD1EE094F80F324F4E83F015
:10365000010384F80F3207F0E7FF28B196F80F3224
:1036600043F0010386F80F32FEF72EFB3B78022B66
:1036700009D194F80F324D4813F0010F4C4B08BF9D
:10368000184601F0DBFC002694F8DC3203F0FF085A
:103690008BB1012000F0AEFBB6F5FA6FD4D2013643
:1036A000F2E7FEF7E3FA012000F0A4FB3B78012BE0
:1036B00021D0022B09D094F8DC32DFF8D090DBB2B5
:1036C0008DF81F30002BECD01FE008F101084FF4FB
:1036D0007A76B8FBF6F306FB1386002EEBD1012BAE
:1036E00004D1B9F8040001F015FDE4E708A801F0E1
:1036F000A5FCB046DFE7D9F8F832A3F50C53283B18
:10370000C9F8F832FEF71CFED5E795F82130012BF9
:1037100006D09DF81F305E071ED540F2D17683E6B5
:10372000322694F8DC32DBB203F00302032A08BF2E
:1037300004238DF81F309DF81F305807E9D401206D
:1037400000F058FB013EECD1E3E7002B3FF466AEFE
:1037500004238DF81F3061E69DF81F300BB901205E
:1037600048E00023A4F8F232A4F8F03294F8CA3208
:103770004FF0000B6FF3410384F8CA32A3889DF821
:103780001FA00393D8465B4654E000BFD00700203B
:10379000ABA301083D240008CEA40108D6A401086B
:1037A000B4A30108DDA40108C1A20108B8A301085F
:1037B000BCA30108200D0020B0A30108280E0020A2
:1037C00000209080FEF798FE994B93F82130023B41
:1037D000012B4DD894F8DC32002BFBD1954B93F89C
:1037E000C8320BB9FEF7FEFA94F8C832002B00F08D
:1037F00084800220FEF780FE20E6BB421ED18E4E62
:103800000BF1010996FBF9F68C4B8D4A964298BF55
:103810001E4695F821208B4B032A08BF1E4600F058
:1038200021FBC8EB0000B0420AD23B4694F8DC1200
:103830005FFA81FA1AF00307DFD15EE04FF000096A
:1038400000F010FB032F80467A4AA38820D195F818
:103850002130012BB4D1BDF80C300020938092F8B8
:10386000CA3243F0020382F8CA32FEF745FE44E052
:10387000FEF7B8FA00F0F6FA734BC8EB0000984276
:1038800032DC94F8DC3203F0FF06002BF2D12CE09E
:103890001AF0010F13D01E4695F815B0B4F806A023
:1038A0000EB1013E03E0BBF1000F06D05646304694
:1038B000FEF7ECF90028F3D017E04FF0FF331E4677
:1038C000B4F806B095F815A05E4506F1010304DBD7
:1038D000BAF1000FDFD0002600E01E463046FEF7AA
:1038E000D5F90028F0D000E000260020A680CB46C5
:1038F000FEF702FEFEF776FA97E794F8CA324D4ECD
:1039000003F0020303F0FF00002B7FF472AFA6F870
:10391000F202A6F8F002B5F82910FEF771F942F2AA
:103920002832B5F82B30424F5A43C6F8F82296F8A1
:103930000F224FF47A76D1064CBF3A7DFA7C56437B
:103940000CD0424A1278012A08D1B4F8F222B5F814
:10395000291001FB02339E4238BF1E460027EEB9F4
:1039600094F8DC32DFF8CC80DBB28DF81F302BB15D
:103970009DF81F0010F0030013D020E0FEF776F949
:10398000012000F037FAD8F8F8320137A3F50C53CC
:10399000283BC8F8F832FEF7D3FCE0E7B742DFD3A4
:1039A000E6E72A4B1B78022B09D101F039FBC8202E
:1039B00000F020FA012001F033FB94F8DC3294F897
:1039C000DC32DBB25A07FAD48DF81F30002B7FF4BB
:1039D000CDAE0EE7216801F2722001F55D7100F0B5
:1039E000C2FB00283FF4DEAC08F10108D4E496F8ED
:1039F000C822306802F14403013286F8C822D6F8A2
:103A0000182306EBC303A3F80C809A6000F55D70E1
:103A100003F016FA00287FF4CFAC306800F55D7330
:103A2000C3EB09094F443946FDF784FF34E400BF76
:103A300020070020D007002040548900D0DD060078
:103A4000CFDD0600407E05003F548900200D002098
:103A500003688B4238BF1A700368013303607047F4
:103A60002DE9F04F804687B000934B1E02900193E2
:103A7000C618571C1278002A00F0FF80252A05D1AD
:103A80004FF00009009D39464C460FE002A8314630
:103A9000FFF7DEFFEFE01CD8392A13D8312A39D2DC
:103AA0002A2A08D1D5F80090043539460A7801371A
:103AB000642AF0D141E0302A29D0232A5CD144F491
:103AC0008064F2E7582A3DD0632A55D12A7804351C
:103AD00052E0702A38D00ED8692A2ED06F2A29D009
:103AE000682A49D14A78682A06BF44F480548F1C5A
:103AF00044F40054D9E7752A21D0782A24D0732AB7
:103B00003AD1D5F800B02B1D00935D461FE044F478
:103B10000064CAE7A2F130093A46174612F8010BD1
:103B2000A0F130010929C0D80A2101FB0903A3F142
:103B30003009F2E744F0080424E044F4007444F04F
:103B40000A041FE044F4807444F010041AE0C5EB4A
:103B5000090415F8012B5C4422B102A83146FFF795
:103B600077FFF4E7002C40F3868002A8314620223C
:103B7000FFF76EFF013CF5E702A83146FFF768FF4B
:103B8000009578E02B1D14F4805F00932D6804F4F9
:103B9000007202D0EDB22AB914E0A00402D5ADB291
:103BA00082B12DB272B1002D0CDA210506D502A822
:103BB00031462D22FFF74CFF24F4007409F1FF3940
:103BC0006D4201E024F40074620519D504F01F0B66
:103BD000BBF1080F02D0BBF1100F11D102A8314682
:103BE0003022FFF735FFBBF1100F02D009F1FF398A
:103BF00006E002A831467822FFF72AFFA9F1020960
:103C00000DF10C0B35B930228DF80C200DF10D0A99
:103C10004D4613E0DA46214A14F4807F204918BF4C
:103C2000114604F01F02B5FBF2F002FB10554A5D8D
:103C300005460AF8012B0028EDD1E9E7CBEB0A0392
:103C40009D420ADD14F4006F02A8314614BF3022F1
:103C50002022FFF7FDFE013DF0E7A30504D5314624
:103C600002A82D22FFF7F4FEDA4504D002A831465F
:103C70001AF8012DF6E73A46FBE6029BB34201D85B
:103C80001A7004E0B0459CBF019B08F8032002981D
:103C9000C8EB000007B0BDE8F08F00BF00A7010827
:103CA00011A701080CB407B504AB53F8042B01931A
:103CB000FFF7D6FE03B05DF804EB02B0704700BF1B
:103CC000EFF3088181F30988022181F31488BFF39F
:103CD0006F8F324B83F30888314B324A9A605A69AE
:103CE00042F404725A615A6A42F4E0225A624FF076
:103CF0007F42DA614FF47F021A622B4B12221A6064
:103D0000A3F580531A6842F480321A601968274A72
:103D1000890301D400BFF9E725495160116841F0DA
:103D2000807111601A682149920101D400BFF9E73E
:103D30004A6842F002024A6059681C4A01F00C01CC
:103D4000082901D000BFF7E713681A4923F00103DF
:103D500013606FF07F434B6001230B600721D1613B
:103D600040F61D0191615361134B4FF080625A6020
:103D700002F1705202F584324FF044335360136005
:103D8000C2F80434C2F80034C2F80438C2F800386B
:103D9000BFF34F8FBFF36F8F704700BF1803002032
:103DA00000ED00E00000000800200240001002408A
:103DB00000C41D0010E000E000000140064B9B68BD
:103DC000054A92689B1A23F07F43984202D9C01A91
:103DD0001346F5E7704700BF10E000E000EBC000BD
:103DE0004FF47A73B0FBF3F0FFF7E8BF00EBC000CD
:103DF000FFF7E4BF42F228335843FFF7DFBF130950
:103E000014BF01234FF480338B400729036110B5A1
:103E100002F00F024FF00F0309D9083944688900F6
:103E20008B4024EA03038A401A43426010BD0468B1
:103E300089008B4024EA03038A401A43026010BDC4
:103E400072B6024A024BDA60FEE700BF0400FA05D0
:103E500000ED00E008B5EFF30383EFF30983FFF70C
:103E6000EFFF00BF064B1A68064B02F07F409B68CD
:103E70001843904288BF00F17F40C043704700BFA5
:103E8000080D002010E000E008B5FFF7EBFFC2438B
:103E900003460448044940F8042B1944BDE808408F
:103EA00000F05FB8080D002020AA440010B500F013
:103EB00095F8094B094C9B68094944F8043B204696
:103EC000002200F049F8FFF7CDFF064901442046E3
:103ED000BDE8104000F045B810E000E0080D0020FB
:103EE000893E000820AA4400124B0C22B0F5803F06
:103EF0001A601A4608DA0C284FF00703CCBF0C38BA
:103F000001209362D0620DE041F61F429A624FF4A5
:103F1000617290FBF2F04FF6FF723238904228BF88
:103F20001046D862034B01225A6100221A610D2209
:103F30001A60704700080040C268012A09D0054B8A
:103F40001968814202D001F10C03F9E71A600123DC
:103F5000C36070471C0D0020012341608260C36074
:103F60007047F8B505460C46EFF31186731EDBB2B9
:103F70003F2B02D9402383F311882846FFF7DCFF4B
:103F80002C60FFF76FFF0C4BF6B21F461A68241A1D
:103F90003AB11168091A8C4203DD02F10C03D268B0
:103FA000F6E7EA601D603B68AB4202D12046FFF7AE
:103FB0009BFF86F31188F8BD1C0D002010B5EFF3B0
:103FC0001184631EDBB23F2B02D9402383F3118897
:103FD000FFF7B2FFE4B284F3118810BD064B002254
:103FE0005A600122DA60054B402283F81E234FF00D
:103FF00080421A60704700BF0008004000E100E006
:104000000C4B002270B51A610B4E346884B12568E0
:10401000FFF728FF281A0C2802DDBDE8704063E78F
:10402000E368A06833600123E36063689847EBE7C7
:1040300070BD00BF000800401C0D00202DE9F007F6
:10404000B1E8F807A0E8F807203AF9D1BDE8F00791
:1040500070472DE9F007CDB24FF001346C43234691
:10406000254626462746A046A146A246A0E8F807D0
:10407000203AFBD1BDE8F0077047F8B532F01F04D5
:1040800006460F46154608D0830706D12246FFF79D
:10409000E0FF05F01F05331900E033461D44AB4235
:1040A00002D003F8017BFAE73046F8BDF8B532F0EC
:1040B0001F0706460D4614460BD040EA01039B0736
:1040C00007D13A46FFF7BAFF3D44F31904F01F0445
:1040D00000E03346013B2C44A54204D015F8012BE7
:1040E00003F8012FF8E73046F8BD884230B50B469B
:1040F0000446154603D2BDE83040FFF7D7BF13444E
:1041000081181A46E81AC24204D012F8010D01F8CB
:10411000010DF7E7204630BD10B50244904207D0AC
:1041200010F8013B11F8014B1B1BF7D0184610BDCE
:10413000002010BD00238B4204D0C25C0AB10133C1
:10414000F9E719460846704730B50A44451E9142C2
:1041500007D015F8014F0B78E01A03D114B10131E3
:10416000F5E7002030BD4FF0FF32FFF7EDBF03460B
:104170001A7801301AB18A42F9D1184670471046B0
:10418000704710B500230446227801301AB18A42E4
:1041900008BF2346F7E7184610BD421E11F8013B41
:1041A00002F8013F002BF9D17047A0F14103192B10
:1041B00098BF203070472DE9F84300240C700D465D
:1041C0002E219146FFF7DDFF0746A0B16E1E09F1D3
:1041D000FF339C4209D204F1010817F80800FFF7E9
:1041E000E4FFC0B206F8010F18B900232B55BDE853
:1041F000F8834446EBE7BDE8F883202805D009386A
:1042000004288CBF002001207047012070472DE951
:10421000F8430F46154681464C4694F8008009F154
:1042200001094046FFF7E9FF06460028F4D1404661
:10423000FFF7BBFF2B28A14601D02D2808D1A0F104
:104240002D035E4299F801005E410134FFF7ADFF96
:10425000302811D1002D607808BF0825FFF7A5FF91
:10426000782804F1010806D1102D1BD1A07804F1A3
:104270000208FFF79AFF4446A0460024A0F130034D
:10428000092B01D8184604E0A0F16103192B0AD8C4
:104290005738A84207DA05FB040418F8010FFFF7A6
:1042A00084FFEBE700240FB1C7F8008016B160422D
:1042B000BDE8F8832046BDE8F8830000F0B51E4C49
:1042C00087B01E4D002301A81D49B4F81F60274682
:1042D0002B70FFF762FF1B4B9C6800F00DFC30B1A8
:1042E000012301A818492B70FFF757FF22E0B7F808
:1042F00025307BB1002E1DDD6420FFF77BFD114BC7
:104300009B68E41A42F2283324F07F44B4FBF3F4B0
:10431000361BE0E700F01EFF02232B7000F07AFE50
:1043200014210346094A01A8FFF7BCFC00F072FE05
:104330000328DFD107B0F0BD20070020200D0020AA
:1043400022A7010810E000E027A7010830A7010814
:10435000024B0422C3F80421704700BF00E100E0D3
:1043600010B58B18994200F1020007D0802400F8A4
:10437000024C11F8014B00F8014CF3E7500010BD5E
:10438000F0B585B004460B466F46264D05F1100E7C
:104390003E4628686968083503C675453746F7D133
:1043A000032A1BD1A34219D103F18002114611F84F
:1043B000010D04AC04EB101010F8100C994281F8B8
:1043C0008000F4D112F8011D04A801F00F0101448E
:1043D00011F8101C9A421170F4D121E0D10710D5C8
:1043E0002546184603F1800610F8011B04AF01F0C2
:1043F0000F01394411F8101CB04205F8011BF3D12C
:10440000803492070CD503F1800113F8012B04A826
:1044100000EB121212F8102C8B4204F8012BF4D18D
:1044200005B0F0BDF0E2000838B51B4B0446B3F808
:1044300025301A4D13F0100F0AD002221849FFF749
:104440008FFF802323542B782218901C503B0AE0C6
:1044500007221449FFF784FF802323546B78221826
:10446000DB08901C013B537080230370AB78033052
:10447000002B14BFAF23AE2300F8023C402300F80A
:10448000013C094B001B5A6842F400725A601A68DA
:1044900042F480721A6038BD20070020240D0020ED
:1044A00000E3000802E30008005800402DE9F0474F
:1044B000664B82469B7E0024082B654E56D1351DE7
:1044C00096F804319C424FD29AF800800AF1010715
:1044D000404600F091FE80B35D4B93F80431013B00
:1044E0009C4222D29AF801000AF1020740EA082011
:1044F00000F08FFEAE46034600F1100C72461868BD
:104500005968083303C263459646F7D105F1800E1A
:1045100003F1100C724618685968083303C26345EA
:104520009646F7D1103501341BE000232B606B60F9
:10453000C5F88030C5F8843012E02A46A8F1200082
:10454000C0B25F28434B28BF0E2003EB001359680D
:10455000186803C253F8080F05F18002596803C2B6
:1045600008350134BA46ABE7BDE8F08786F88440E9
:10457000347106F1050896F8042108F18009944287
:1045800053D29AF800500AF10107284600F034FE91
:1045900078B32F4B93F80431013B9C421ED29AF81A
:1045A00001000AF1020740EA052000F032FE03682C
:1045B00008F10C0848F80C3C4368013448F8083C02
:1045C000836848F8043C50F8103FC9F8003043684D
:1045D000C9F804308368C9F8083023E04046002158
:1045E0000622FFF74AFD484600210622FFF745FD57
:1045F00016E0A5F12000C0B25F28174B28BF0E209F
:104600000C2202FB00300368C8F800308388A8F849
:10461000043050F8063FC9F800308388A9F8043008
:1046200008F106080134BA46A5E7062303FB02F4A5
:10463000C4F17F04224640460021FFF71EFD484694
:104640002246BDE8F0470021FFF717BD20070020F4
:10465000240D0020CCE7000820E3000810B50A4C28
:104660000A4B221D1A6540F2931298645A64FFF7B0
:10467000F9FB00F5DB1101F5BA5104F58470BDE8D2
:104680001040FFF76EBC00BF240D00200000024068
:1046900010B5104B9968104A53690340834216D0F5
:1046A000536913F45F4305D0536923F45F435361A7
:1046B000002010BD074A094C92688A1A22F07F42F6
:1046C000A242E8D9064A012182F81811F0E7012038
:1046D00010BD00BF10E000E000580040905F0100F6
:1046E000240D002038B50B4C05462368012043F407
:1046F00080732360FFF7CCFF08B9002038BD6D0040
:1047000025610220FFF7C4FF0028F6D0A36901202D
:1047100038BD00BF00580040F8B504460F46BC4203
:104720001AD80E4B93F81861B6B92046FFF7DAFF96
:1047300078B10B4D04202E61FFF7AAFF2B4640B144
:104740002A6842F400722A601A689205FCD4204656
:10475000F8BD0134E4B2E2E70020F8BD240D0020EA
:104760000058004030B5134B04689B78651C1A4311
:1047700021F00F03134305602370046842EA01121D
:10478000651C056043F0040525700468D2B2651C01
:10479000056023700368591C01601A700368591C76
:1047A000016042F0040119700368591C01601A701D
:1047B00030BD00BF240D002038B50546074C2061F0
:1047C0000420FFF765FF45F0040323610420FFF791
:1047D0005FFF25610420BDE8384059E700580040DC
:1047E000084B5969C80741BF074A92F8192152007E
:1047F0001A618A0741BF9A695A6822F400725A60A6
:10480000704700BF00580040240D0020744B002268
:104810002DE9F3415A64734C4FF480525A6094F876
:104820001A51002D00F0AC806F4B6278B3F8253040
:1048300013F0100F237836D0402A04F21B1217D140
:104840009B08282000FB0320FFF730FE234613F8C7
:10485000042B04F1840012F0020F02F0010214BFD5
:104860008021002101321944D2B2FFF789FD13E003
:104870005B08282000FB0320FFF718FE2378DB07E6
:104880000AD404F18400211D8022FFF70FFC03E00D
:10489000536913F45F4F13D1544A536913F0040F53
:1048A0001346F5D00EE0B3EB121F47D14F4B5A69B8
:1048B00012F0040F1A462ED15B6913F45F4FF5D046
:1048C000002088E0126842F400721A601F6817F432
:1048D0000077FBD1434E351D2846FFF7A5FD2B1869
:1048E000184606F184018022FFF7E0FB0346227898
:1048F00061780132D2B2B2EBD10F227008BF96F8C4
:104900006B2103F1800301BF0132D2B2377086F808
:104910006B21581B5FE01B6843F40073136013683E
:1049200013F40073FBD1237094F86B3130480133DA
:10493000DBB284F86B31FFF777FD4CE0402A4FF093
:10494000280004F21B1211D15B0800FB0320FFF7C3
:10495000ADFD204610F8043B032213F0010F14BFF5
:10496000802100210144FFF70BFD03E000FB032041
:10497000FFF79CFD23784FF48070013323702AE009
:10498000201D064694F86B3101900133DBB284F8A8
:104990006B3194F86C319D421BD2A90161F07F010B
:1049A000002201A801F0C001FFF7DCFE114A282314
:1049B00003FB0528002794F804319F4207D218F81A
:1049C000071001A80122FFF7CDFE0137F3E70135FB
:1049D000DFE70198801BFFF741FE02B0BDE8F081E0
:1049E00000000240240D0020200700200058004055
:1049F000280D00203F0E00202DE9F047254E00290C
:104A0000BCBF96F86C4109190028BCBF96F8044158
:104A10000019282404FB01011F4C002AB8BF96F896
:104A200004212144EFF311877C1EE4B2CF2C02D97C
:104A3000D02484F311880C46984696F804A1FFB25E
:104A400018F8019BC4EB020E451A8E442544B9F1B7
:104A5000000F03D1234696F8041111E0C3EB000CBC
:104A60005545C44402DA04F8019BE9E7234665464C
:104A7000F1E72A1B1A448A4207DA202203F8012BA5
:104A8000C3EB0E022244002AF3DC87F31188BDE851
:104A9000F08700BF240D00203F0E002010B5084C09
:104AA0000020014623464FF0FF32FFF7A5FF2346C3
:104AB000BDE81040002001214FF0FF32FFF79CBFFE
:104AC000C1A201080028034B14BF082200229A70DB
:104AD000704700BF240D0020064B1A4693F86B1157
:104AE000C9B292F86B315B1ADBB2012B01D800BF5F
:104AF000F7E77047240D00202DE9F04FBF4DC04E61
:104B0000EB6996F81971BF4C43F480030037EB61F1
:104B100085B020464FF00A014FF0160218BF01275A
:104B2000FFF76DF90B2120461622FFF768F90A20DE
:104B3000FFF75CF9A36859051BD5A3681A0518D4BB
:104B40004FF0006323614FF0806323610A20FFF779
:104B50004DF94FF4806323610A20FFF747F94FF4C2
:104B6000006323610A20FFF741F9A3685B0548BF92
:104B7000A368BFB1A3480A210E22FFF740F90E2215
:104B8000A0480B21FFF73BF99F4B00221A6024221B
:104B90005A60B422DA6125221A6201221A60002FBB
:104BA0005ED116E0974C0A2120460822FFF727F92C
:104BB00020460B210822FFF722F90A20FFF716F9F9
:104BC000A368580540F13181A368190540F12D8192
:104BD000D0E720202721FFF79FFD30B938203F2163
:104BE000FFF79AFD002800F02081884AB2F82530AE
:104BF000114613F0010F08D19A0708D420F00102E2
:104C0000A2F13C046242624102E0002200E0012283
:104C1000022486F81A2186F86C4192B113F0200F15
:104C200014BF4022202272708A7E082A05D013F019
:104C3000080F14BF1223152300E0102386F8043157
:104C40000AE0C3F34513102B38BF1023282B6C4AFE
:104C500028BF282382F8043186F81901FFF71EFFC8
:104C60006B4BD0224FF0020A83F82123C3F884A1B2
:104C70004FF0040BC3F804A083F82223C3F884B1D7
:104C8000614CC3F804B06168624841F480716160AE
:104C90006149C8644FF48050486083F80E234FF494
:104CA0008042C3F88021DFF858811A605B490022F6
:104CB00008F58470FFF750F9FFF7D4F800F5DB1121
:104CC00001F5BA5108F58470FFF74BF996F81A917F
:104CD000B9F1000F4FD000232422236001936260BA
:104CE00048F21E020127E2610C22226227606268FC
:104CF00008EB0B0942F4807262604949122248466F
:104D0000FFF72EFBA8228DF80C2098F8012009EB64
:104D10000005402A02F1FF3114BF524612228DF8DD
:104D20000D10DA218DF80E108DF80F20284603A9FA
:104D30005A46FFF715FB354A0544B2F82500394AB3
:104D400010F0040F02EB0A01284618BF1146524624
:104D5000FFF706FB019B054428463370FFF764FB11
:104D60006368284443F40063C9EB00006360FFF705
:104D700075FC38467FE098F81901FFF7B3FC00286E
:104D800052D03020FFF718FD41F20400FFF72EF853
:104D90003020FFF711FD6420FFF728F83020FFF7DF
:104DA0000BFD04AD202008F10406FFF705FD45F8D2
:104DB000046D284628214A46FFF7D4FC28460821DE
:104DC0004A46FFF7CFFC284606214A46FFF7CAFCB1
:104DD00028460C214A46FFF7C5FC636843F400638C
:104DE00063600398801BFFF739FC002F42D1FFF767
:104DF00073FE082388F802303CE000BF0010024038
:104E0000240D0020000C0140005800402007002025
:104E100000E100E01058004000000240514300084B
:104E20000DE3000809E300082FBB144B0422C3F86C
:104E30008420BFF34F8FBFF36F8F4FF48042C3F8CE
:104E40008020BFF34F8FBFF36F8F0D4A0D4813685B
:104E50000A2123F0010313601822FEF7D0FF09484E
:104E60000B211822FEF7CBFFEB69002023F480030F
:104E7000EB6100E0012005B0BDE8F08F00E100E04B
:104E800000580040000C014008B50C4B4FF40041A5
:104E90005A695A690A4822F45F425A6100221A602C
:104EA000196003F5D4335A644FF480525A60FFF707
:104EB00085F8BDE80840FFF71FBE00BF005800405E
:104EC0002C0E002070B504461026104D4FF00063E4
:104ED0002B610220FEF78AFF14F4004F14BF4FF439
:104EE00080634FF080632B610220FEF77FFF4FF459
:104EF00000632B610420FEF779FF6400013EA4B239
:104F0000E3D14FF480632B6170BD00BF000C014002
:104F1000014618220148FEF772BF00BF000C014095
:104F200008B50B2106220A48FEF769FF0420FEF7A8
:104F30005DFF0B20FFF7ECFF0220FEF757FF0A2072
:104F4000FFF7E6FFBDE808400220FEF74FBF00BFB5
:104F5000000C014010B50C4C0B2106222046FEF738
:104F60004EFF0420FEF742FF0B20FFF7D1FF022087
:104F7000FEF73CFF20460A210622FEF740FFBDE86F
:104F800010400220FEF732BF000C014038B540F45B
:104F90008074002516480B210622FEF730FF022000
:104FA000FEF724FFE30703D50A20FFF7B1FF04E073
:104FB0000F480A210622FEF722FF0120FEF716FF06
:104FC000012C07D10A480A2185680622C5F38025ED
:104FD000FEF715FF0120FEF709FF0B20FFF798FFF2
:104FE0000420FEF703FF6408D4D1284638BD00BF73
:104FF000000C014070B506460324FFF7ABFF3046B6
:10500000FFF7C4FF0546FFF78BFF0DB1013CF4D15C
:10501000284670BD014B1878704700BF940E0020E1
:10502000054B1A78032A04D1002814BF8920802058
:10503000E0E700B1588845E7940E002037B500231B
:10504000ADF804308DF80630013801AA0DF10701E2
:1050500010F8013F1BB38A4221D0A3F13004092C80
:1050600004D82A4C234413F8303C15E0A3F1610422
:10507000192C04D8254C234413F8573C0CE0A3F119
:105080004104192C04D8214C234413F8373C03E085
:105090002D2B0CBF4023002313700132D8E71C4A8C
:1050A0001478032C24D1FFF755FFC020FFF76EFFC3
:1050B00008B1012516E09DF80400FFF767FF0028FE
:1050C000F7D19DF80500FFF761FF0028F1D19DF8A9
:1050D0000600FFF75BFF0028EBD1FFF757FF051C29
:1050E00018BF0125FFF71CFF6DB1013CDBD10AE0C1
:1050F0009DF804009DF8053043EA0020508003B07D
:10510000BDE83040DEE603B030BD00BF94E70008E4
:10511000940E002013B50C4B0C4C1B780421032B70
:1051200014BF64234FF47A73B0FBF3F202FB130352
:10513000074A01A818BF2246FEF7B4FD01A8FFF7F1
:105140007DFF02B010BD00BF940E002020A5010815
:1051500043A7010808B50A20FFF7DAFE0B20FFF786
:10516000D7FE4020FFF746FF00280CBF0323022391
:105170000A4A022B137009D109480A211222FEF7AC
:105180003EFE07480B211222FEF739FE0548FFF7C5
:1051900055FFBDE808400120FFF742BF940E0020F4
:1051A000000C0140C1A20108036863B142685A6063
:1051B00043680BB102681A6000230360024B1A684F
:1051C0001860426010607047980E0020C0F34113D1
:1051D000DA1FC0F3023303EB43031344054ADBB287
:1051E000D35C00F4706200F01F0040EAD20080EA55
:1051F00003207047B8E7000880F080031F2B06D912
:105200002030C0B20B288CBF002001207047012045
:10521000704710B50A4B1C682389834205D120468C
:10522000FFF7C2FF04F10A0010BD6468002CF3D13F
:10523000552104220348FEF720FF024810BD00BF9D
:10524000980E00209C0E002010B5054C636A2BB10F
:1052500004F1280001F0E7FD0023636210BD00BFE8
:10526000980E00202DE9F3470546414B1C68228922
:10527000AA4203D12046FFF797FF74E062680AB1A3
:105280001446F4E75B6A002B61D02A0A813A520087
:10529000D2B2EBB202F121007E2BC0B201D81F3B8B
:1052A00002E09E2B02D8203BDBB203E07E3B2232A1
:1052B000DBB2D0B243EA0020FFF788FF41012D485E
:1052C00001F0EEFD074600283FD104F10A063946F9
:1052D00020223046FEF7D1FE264801ABA0F1240182
:1052E000202201F0DEFB3946DFF88CA001230AEB17
:1052F000010252781AF8018007F1100E42EA0828DC
:105300003A464FF4004C1CEA080F18BF16F80290FA
:105310004FEA5C0C1CBF43EA090906F8029001320F
:105320007245F0D15B0013F0FF0301F1020114BFDD
:10533000BE460123202901D07746D8E728B9258128
:105340002046FFF731FF30460FE0FFF77DFF4FF6B5
:10535000FF7304F12902238104F10903FF2103F8FB
:10536000011F9342FAD104F10A0002B0BDE8F087B0
:10537000980E0020C00E00209C0E002070B5461E26
:10538000002516F8014F64B125B145EA0400FFF786
:1053900069FFF5E72046FFF72FFF0028F1D025022F
:1053A000EFE770BD38B50546124CFFF74DFF04F12D
:1053B00028002946012201F07DFA08B90123636221
:1053C0000D4BA3F12C0243F82C2B4FF6FF7223F860
:1053D000242C084A43F8283C02F5147000F5B0511B
:1053E0008B42EED3002143F8281C1060C2F8501203
:1053F00038BD00BF980E0020E81000208378C278E6
:1054000043EA02224378007843EA022340EA032079
:10541000704730B5044614F8013B11F8015B5B1B83
:10542000151BE84201D0002BF5D0184630BD80286E
:1054300008D99F2808D92030C0B21C288CBF002072
:105440000120704700207047012070473F280AD98B
:105450007E2806D97F2806D0FC288CBF002001209A
:1054600070470120704700207047C3690239023B32
:1054700099423DBF4289036B02FB01300020704717
:1054800000F10B010023DA0142EA530310F8012B6B
:105490001344884203F0FF03F5D11846704770B5F6
:1054A000056806466B1C03602C78A4F16103192B78
:1054B0009CBF203CA4B2E0B2FFF7B9FF48B16878C6
:1054C000FFF7C4FF28B1AB1C33606B7843EA0424B8
:1054D000A4B2204670BDF0B505461E46144685B000
:1054E00001913CB101A8FFF7DAFF013C0028F8D197
:1054F000002039E02B78002B32D1002E30D0012053
:1055000032E02A2B0FD002A8FFF7C9FF074603A8F5
:10551000FFF7C5FF874204461BD1002FEFD0029B47
:105520001B783F2BEDD100231A460299481C0290AC
:105530000C7849783F2C0CBF013201233F29F4D06D
:105540002A29F2D00399FFF7C6FF0028D7D1039B81
:105550001C7801A8FFF7A3FF002EC9D0002CC7D0EC
:10556000019B02950393DAE705B0F0BD10B503681F
:1055700093B11A46144612F8011B1F290AD93A2979
:10558000F8D11A4612F8011B944205D1302903D1F3
:1055900002330360002010BD4FF0FF3010BD38B55E
:1055A0000D46044678B103686BB11A785AB1818808
:1055B000DA88914207D1587806F05AF810F00100C5
:1055C00001D1236801E0092000232B6038BD013898
:1055D0000A4411F8013B914200F8013FF9D17047AC
:1055E000CA7E8B7E032843EA022301BF487D0A7DE1
:1055F00042EA002243EA024318467047C2F30723F7
:105600008A76CB760378032B01BF120C0A75120A37
:105610004A757047F8B5C37804460BB90020F8BD49
:1056200000F1380739464078626B012306F054F8E0
:1056300080B9626BA36A266AD31AB342E070EDD2D6
:10564000A378022BEAD1607839463244012306F070
:1056500043F8E3E70120F8BD70B5436B0646994275
:105660000D4611D0FFF7D6FF044670B92A46707870
:1056700006F13801012306F003F800281CBF4FF0A3
:10568000FF350124756300E00024204670BD00232F
:1056900010B5C3704FF0FF3343630446FFF7DCFFE0
:1056A00028BB94F8372294F8363243EA02234AF6AC
:1056B000552293421DD194F83830E92B05D0A36BC5
:1056C0000E4A03F0FF13934215D104F16E000C490A
:1056D0000322FFF79EFE78B104F18A0009490522F2
:1056E000FFF797FE002814BF0220002010BD042001
:1056F00010BD032010BD022010BD00BFEB009000C4
:10570000B4A3010848A701082DE9FF4700230B6057
:1057100088461546FFF72AFF071EC0F23581A24EC4
:1057200056F82740002C00F03181C8F8004023785B
:1057300005F0FE0583B1607805F09AFFC1070BD430
:10574000002D00F0258100F0040303F0FF00002B82
:1057500000F026810A2023E10023F8B22370607054
:1057600005F070FFC20700F115810DB14307F1D4B8
:1057700020460021FFF78BFF02281FD104F5FF7799
:10578000002517F8040C10B13846FFF737FE4DF826
:1057900025000135042D07F11007F2D100255DF831
:1057A000257037B120463946FFF771FF012801D82F
:1057B0000DE003200135042DF1D1EDE004284FF078
:1057C000000700F0EC80012801D90D20E8E094F8F2
:1057D000442094F8433043EA0223B3F5007FF4D128
:1057E00094F84F9094F84E3053EA092904D104F10B
:1057F0005C00FFF703FE814694F84880C4F82090CF
:1058000008F1FF33012B84F80280DED894F845506C
:10581000ABB26381002BD8D06B1E2B42D5D194F84C
:105820004AA094F8493043EA0A2A1AF00F0FA4F864
:1058300008A0CAD194F84C0094F84B3053EA0020E9
:1058400003D104F15800FFF7D9FD94F8472094F8EC
:10585000463053EA0223B8D008FB09F103EB1A12D1
:105860000A449042B1D3801AB0FBF5F5002DACD0BC
:105870004E488542A9D84FF6F570854208D840F6C3
:10588000F57845458CBF4FF002084FF0010801E064
:105890004FF0030802353B443A44B8F1030FE56189
:1058A0006762A362226310D194F8632094F8623097
:1058B00053EA022389D1BAF1000F86D104F16400C2
:1058C000FFF79CFDAD00E06212E0BAF1000F3FF47B
:1058D0007CAFB8F1020F4FEA45000CBF05464019F6
:1058E0000B4418BF05F00105E36218BF05EB500536
:1058F00005F2FF15B9EB552FFFF467AF4FF0FF33FB
:1059000063612361B8F1030F4FF0800323712FD13E
:1059100094F8692094F8683043EA0223012B27D1D8
:105920002046791CFFF798FE10BB94F8372294F8B4
:105930003632207143EA02234AF65522934217D1A8
:1059400004F13800FFF75AFD194B984210D104F5C5
:105950000770FFF753FD174B984209D104F5087003
:10596000FFF74CFD606104F50970FFF747FD20610A
:10597000B388002001339BB2B380E3800E4B84F8E0
:105980000080E360A0610BE00B2009E00C2007E041
:10599000284605E0032003E004287FF416AF012029
:1059A00004B0BDE8F08700BFE8260020F5FFFF0F38
:1059B0005252614172724161EE2600200129F8B510
:1059C00006460C4653D9C369994250D20378022B3C
:1059D00029D0032B3AD0012B49D101EB5105816A23
:1059E00001EB5521FFF738FE10B14FF0FF30F8BD45
:1059F000B16A6F1CC5F308053544304601EB5721E9
:105A000095F83850FFF728FE0028EED1C7F30807B5
:105A10003E4496F83800E30745EA00204CBF0009F1
:105A2000C0F30B00F8BD816A01EB1421FFF714FEEF
:105A30000028DAD1640004F4FF743319344493F875
:105A4000383094F8390043EA0020F8BD816A01EB50
:105A5000D411FFF701FE0028C7D1A00000F4FE70AA
:105A600038303044FFF7CAFC20F07040F8BD012008
:105A7000F8BD2DE9F041B1F5001F06460C46076858
:105A800002D30220BDE8F081CA06FAD131618568EF
:105A900065B93B78022B01D9FB6A33B93B89B3EB7B
:105AA000541FEED9FB6AB3611AE01D462946B7F8C8
:105AB0000A804FEA482844450DD33068FFF77EFF3F
:105AC000431C01461BD00128DBD9FB699842D8D280
:105AD000C8EB0404EFE738460D46FFF7C6FCB0619B
