:020000040800F2
:2000000080060020B158000841050008410500084105000841050008410500084105000855
:2000200041050008410500084105000805050008410500084105000841050008410500088C
:20004000410500084105000841050008410500084105000841050008410500084105000830
:200060004105000841050008410500084105000841050008410500089114000841050008B1
:200080004105000841050008410500084105000841050008410500084105000841050008F0
:2000A000410500084105000841050008410500084105000841050008250C000841050008E5
:2000C0004105000865140008051B00084105000841050008410500084105000841050008A3
:2000E000410500084105000841050008410500084105000841050008410500084105000890
:2001000041050008410500084105000841050008410500084105000841050008410500086F
:2001200041050008410500084105000841050008410500084105000841050008410500084F
:2001400041050008410500084105000899300008084B9A6812F4807F1A4602D19B681B0633
:2001600005D59068C0F3801080F0010070470120704700BF0010014038B5054600240520D9
:20018000640000F049FCA4B26DB10B4B986810F4807006D0986810F080001CBF9868C0F324
:2001A0008010044303E0FFF7D3FF204384B24FF6FF739C42E3D138BD0010014008B5084B85
:2001C0001B78012B05D0022B09D1BDE8084001F065BD01F0B5FABDE8084001F0BBBA08BDCC
:2001E0008417002008B50A4A03461178012905D002290BD1BDE8084001F05EBD062000221A
:2002000001F038FABDE8084001F0A4BA08BD00BF84170020F7B5694D694B284605F1340191
:20022000684A00F015FA95F84A302C460BB9012311E005F14A034FF48071634A05F24D1043
:2002400000F042FB284605F1340100F007FA95F84A301BB1022385F84C31ACE0284600F00B
:20026000EBF95A48FFF7BEFF05F24D1105F51470012200F0A6F9D5F85C12A1F58063B3F564
:200280005D3F05D811F0030F14BF0325002500E003254A4E84F84C51002D40F08C8006F595
:2002A0001470043900F0BCF92B4606F5147001A9042200F09DF9BDF804305BBA44F25962A3
:2002C0009BB2934201D0032328E04148FFF78AFF06F51470294600F0A3F94FF6FF77D4F8F4
:2002E0006452D4F85C32354E9D4215D05D1BB5F5006F28BF4FF4006506F5147006F58E611E
:200300002A46002300F074F93A4606F58E60294600F002F90746E2E71FB1042386F84C3122
:2003200049E02C48FFF75EFF00F06AF82A4D284600F080F8294B05F500659D42F7D1012390
:20034000274884F8703CFFF74DFF2648002100F067F9214FD4F86412D4F85C32174E994299
:2003600020D05D1AB5F5006F28BF4FF4006506F5147006F58E612A46002300F039F906F555
:200380008E6029463A4600F069F8384606F58E612A4600F0D3FC18B1052384F84C310AE0C4
:2003A0002F44D7E70C484FF6FF7200F0B5F80028F2D186F84C01002003B0F0BD8006002089
:2003C000B465000865660008D9650008C2650008C6650008CA6500080080000800F80308BF
:2003E000CE650008D0080020044AD36813F00103FAD13421D1601361704700BF002002409D
:20040000094B1A6842F001021A601A68910701D400BFFAE7054B1A69120641BF044A5A60D5
:2004200002F188325A60DFE700100240002002402301674510B50446FFF7D6FF064B1A695D
:2004400042F002021A615C611A6942F040021A61BDE81040C8E700BF00200240F8B50546FF
:200460000E461746FFF7C0FFAC1EB31E1B1BDD420BD0064A136943F00103136134F8022F77
:20048000631BDA53FFF7B0FFEFE7F8BD002002402DE9F14FC0F800D010468847009A002161
:2004A000116001B0BDE8F08F38B5036804461BB3EFF314839D0702D5104B186000DFEFF3FE
:2004C00009814FF0FF330B600D4B8B61CB6903F08073CB612268A2F12005680742BFA2F1E7
:2004E000240543F40073CB612846202200F00FFC85F309880023236038BD00BF2817002090
:20050000A204000810B5034C2068FFF7CDFF0023236010BD2817002010B5014488420AD04F
:2005200010F8013B054C83EA122334F8133083EA022292B2F2E7104610BD00BF7C5A0008A7
:200540002DE9F04F684600F097BA0000044B1B6820B1044A1070181FFFF7A6BF704700BFDE
:20056000000000202C170020034610B5074C0A462068011D21601946FFF78AFF2368002295
:20058000043B2360024B18781A7010BD000000202C170020DAE770B506460D46144602F011
:2005A000F1FD08B104F0010422463046294602F099F9031F012B044601D9FFF7C7FF204636
:2005C00070BD70B506460D46144602F0DBFD08B104F0010430462946224602F083F9BDE8F4
:2005E0007040B3E708B502F04FFABDE80840ADE7F7B51C4601AB15460F4602F0BAF9019A8E
:2006000006460CB1226006E0AA4204D2B8182146AA1A00F044FB3046FFF798FF03B0F0BD1A
:2006200008B502F069FABDE808408FE708B502F0CAFABDE8084089E708B502F0F9FABDE82E
:20064000084083E708B502F0FCFABDE808407DE708B502F020FCBDE8084077E708B502F02D
:2006600003FCBDE8084071E708B502F016FABDE808406BE703688B4238BF1A7003680133E0
:20068000036070472DE9F04F804687B000934B1E02900193C618571C1278002A00F0FF8058
:2006A000252A05D14FF00009009D39464C460FE002A83146FFF7DEFFEFE01CD8392A13D82B
:2006C000312A39D22A2A08D1D5F80090043539460A780137642AF0D141E0302A29D0232AA8
:2006E0005CD144F48064F2E7582A3DD0632A55D12A78043552E0702A38D00ED8692A2ED070
:200700006F2A29D0682A49D14A78682A06BF44F480548F1C44F40054D9E7752A21D0782A4D
:2007200024D0732A3AD1D5F800B02B1D00935D461FE044F40064CAE7A2F130093A4617462D
:2007400012F8010BA0F130010929C0D80A2101FB0903A3F13009F2E744F0080424E044F4A2
:20076000007444F00A041FE044F4807444F010041AE0C5EB090415F8012B5C4422B102A843
:200780003146FFF777FFF4E7002C40F3868002A831462022FFF76EFF013CF5E702A8314636
:2007A000FFF768FF009578E02B1D14F4805F00932D6804F4007202D0EDB22AB914E0A00442
:2007C00002D5ADB282B12DB272B1002D0CDA210506D502A831462D22FFF74CFF24F400745D
:2007E00009F1FF396D4201E024F40074620519D504F01F0BBBF1080F02D0BBF1100F11D1F6
:2008000002A831463022FFF735FFBBF1100F02D009F1FF3906E002A831467822FFF72AFFAC
:20082000A9F102090DF10C0B35B930228DF80C200DF10D0A4D4613E0DA46214A14F4807FE0
:20084000204918BF114604F01F02B5FBF2F002FB10554A5D05460AF8012B0028EDD1E9E722
:20086000CBEB0A039D420ADD14F4006F02A8314614BF30222022FFF7FDFE013DF0E7A30542
:2008800004D5314602A82D22FFF7F4FEDA4504D002A831461AF8012DF6E73A46FBE6029BF8
:2008A000B34201D81A7004E0B0459CBF019B08F803200298C8EB000007B0BDE8F08F00BF06
:2008C00014660008256600080CB407B504AB53F8042B0193FFF7D6FE03B05DF804EB02B057
:2008E000704700BFEFF3088181F30988022181F31488BFF36F8F324B83F30888314B324AB4
:200900009A605A6942F404725A615A6A42F4E0225A624FF07F42DA614FF47F021A622B4B0A
:2009200012221A60A3F580531A6842F480321A601968274A890301D400BFF9E725495160A9
:20094000116841F0807111601A682149920101D400BFF9E74A6842F002024A6059681C4ADF
:2009600001F00C01082901D000BFF7E713681A4923F0010313606FF07F434B6001230B6017
:200980000721D16140F61D0191615361134B4FF080625A6002F1705202F584324FF04433B2
:2009A00053601360C2F80434C2F80034C2F80438C2F80038BFF34F8FBFF36F8F704700BF93
:2009C0008002002000ED00E000000008002002400010024000C41D0010E000E000000140FA
:2009E000064B9B68054A92689B1A23F07F43984202D9C01A1346F5E7704700BF10E000E0C6
:200A000000EBC0004FF47A73B0FBF3F0FFF7E8BF00EBC000FFF7E4BF42F228335843FFF76C
:200A2000DFBF130914BF01234FF480338B400729036110B502F00F024FF00F0309D9083974
:200A4000446889008B4024EA03038A401A43426010BD046889008B4024EA03038A401A43F1
:200A6000026010BD72B6024A024BDA60FEE700BF0400FA0500ED00E008B5EFF30383EFF3D1
:200A80000983FFF7EFFF00BF064B1A68064B02F07F409B681843904288BF00F17F40C04328
:200AA000704700BF3817002010E000E008B5FFF7EBFFC24303460448044940F8042B194439
:200AC000BDE8084000F05FB83817002020AA440010B500F095F8094B094C9B68094944F829
:200AE000043B2046002200F049F8FFF7CDFF064901442046BDE8104000F045B810E000E090
:200B000038170020AD0A000820AA4400124B0C22B0F5803F1A601A4608DA0C284FF0070371
:200B2000CCBF0C3801209362D0620DE041F61F429A624FF4617290FBF2F04FF6FF7232387A
:200B4000904228BF1046D862034B01225A6100221A610D221A60704700080040C268012A86
:200B600009D0054B1968814202D001F10C03F9E71A600123C36070474C1700200123416095
:200B80008260C3607047F8B505460C46EFF31186731EDBB23F2B02D9402383F31188284693
:200BA000FFF7DCFF2C60FFF76FFF0C4BF6B21F461A68241A3AB11168091A8C4203DD02F128
:200BC0000C03D268F6E7EA601D603B68AB4202D12046FFF79BFF86F31188F8BD4C17002085
:200BE00010B5EFF31184631EDBB23F2B02D9402383F31188FFF7B2FFE4B284F3118810BDDA
:200C0000064B00225A600122DA60054B402283F81E234FF080421A60704700BF00080040A3
:200C200000E100E00C4B002270B51A610B4E346884B12568FFF728FF281A0C2802DDBDE80C
:200C4000704063E7E368A06833600123E36063689847EBE770BD00BF000800404C1700201A
:200C60002DE9F007B1E8F807A0E8F807203AF9D1BDE8F00770472DE9F007CDB24FF00134D1
:200C80006C432346254626462746A046A146A246A0E8F807203AFBD1BDE8F0077047F8B596
:200CA00032F01F0406460F46154608D0830706D12246FFF7E0FF05F01F05331900E03346BF
:200CC0001D44AB4202D003F8017BFAE73046F8BDF8B532F01F0706460D4614460BD040EA7E
:200CE00001039B0707D13A46FFF7BAFF3D44F31904F01F0400E03346013B2C44A54204D0E3
:200D000015F8012B03F8012FF8E73046F8BD884230B50B460446154603D2BDE83040FFF7E0
:200D2000D7BF134481181A46E81AC24204D012F8010D01F8010DF7E7204630BD10B5024498
:200D4000904207D010F8013B11F8014B1B1BF7D0184610BD002010BD00238B4204D0C25C5A
:200D60000AB10133F9E719460846704730B50A44451E914207D015F8014F0B78E01A03D152
:200D800014B10131F5E7002030BD4FF0FF32FFF7EDBF03461A7801301AB18A42F9D1184696
:200DA00070471046704710B500230446227801301AB18A4208BF2346F7E7184610BD421E42
:200DC00011F8013B02F8013F002BF9D17047A0F14103192B98BF203070472DE9F8430024FC
:200DE0000C700D462E219146FFF7DDFF0746A0B16E1E09F1FF339C4209D204F1010817F810
:200E00000800FFF7E4FFC0B206F8010F18B900232B55BDE8F8834446EBE7BDE8F883202819
:200E200005D0093804288CBF002001207047012070472DE9F8430F46154681464C4694F86F
:200E4000008009F101094046FFF7E9FF06460028F4D14046FFF7BBFF2B28A14601D02D28DB
:200E600008D1A0F12D035E4299F801005E410134FFF7ADFF302811D1002D607808BF0825FD
:200E8000FFF7A5FF782804F1010806D1102D1BD1A07804F10208FFF79AFF4446A0460024E0
:200EA000A0F13003092B01D8184604E0A0F16103192B0AD85738A84207DA05FB040418F892
:200EC000010FFFF784FFEBE700240FB1C7F8008016B16042BDE8F8832046BDE8F883000085
:200EE00037B50546002302AC24F8023DFFF788FA2046022105F17C02FFF7B0FA03B030BDDA
:200F000010B50E4C4FF6FF73B4F87C209A420DD12388934210D02378022B04D120468021F5
:200F2000FFF7FAFA40B12046FFF7DAFF044B80349C42E7D1002010BD204610BD00F80308E5
:200F40000000040870B5A2B0FFF7DAFF044650B14FF6FF7302889A4205D026493322FFF748
:200F6000EDFE002843D0FFF74BFA84B14FF6FF7322889A420FD004F17843A3F57E33B3F51E
:200F8000F06F04D22046FFF7ABFF803403E01A48FFF750FA184C802202A80021FFF77FFE99
:200FA000144B02AA03F13006154618685968083303C5B3422A46F7D14FF6FF7219889B78C6
:200FC00002A82980AB707E21ADF88420FFF7A4FA40BA22AD25F8820D7C2102A82246FFF70D
:200FE0003DFA2846022104F17E02FFF737FA22B070BD00BF5017002000F8030808B5FFF792
:201000007FFF38B14FF6FF7302889A4202D0BDE8084065E708BD70B5FFF772FF014630B1C8
:2010200003884FF6FF70181A18BF0120FFE70F4A0F4B144603F1300553F8046BAB4242F84A
:20104000046BF9D11D889B781580937068B162784B789A4228BF1A46022A06D9BDE87040CE
:2010600004480231023AFFF733BE70BD501700207C5C000852170020F0B51E4C87B01E4D00
:20108000002301A81D49B4F81F6027462B70FFF796FE1B4B9C6800F06DFB30B1012301A8F1
:2010A00018492B70FFF78BFE22E0B7F825307BB1002E1DDD6420FFF7AFFC114B9B68E41AD9
:2010C00042F2283324F07F44B4FBF3F4361BE0E700F07EFE02232B7000F0DAFD142103468B
:2010E000094A01A8FFF7F0FB00F0D2FD0328DFD107B0F0BD5017002084170020366600082F
:2011000010E000E03B66000844660008024B0422C3F80421704700BF00E100E010B58B18B2
:20112000994200F1020007D0802400F8024C11F8014B00F8014CF3E7500010BDF0B585B0B5
:2011400004460B466F46264D05F1100E3E4628686968083503C675453746F7D1032A1BD1B5
:20116000A34219D103F18002114611F8010D04AC04EB101010F8100C994281F88000F4D140
:2011800012F8011D04A801F00F01014411F8101C9A421170F4D121E0D10710D52546184657
:2011A00003F1800610F8011B04AF01F00F01394411F8101CB04205F8011BF3D1803492070F
:2011C0000CD503F1800113F8012B04A800EB121212F8102C8B4204F8012BF4D105B0F0BD65
:2011E000B05C000838B51B4B0446B3F825301A4D13F0100F0AD002221849FFF78FFF80232F
:2012000023542B782218901C503B0AE007221449FFF784FF802323546B782218DB08901C94
:20122000013B537080230370AB780330002B14BFAF23AE2300F8023C402300F8013C094B80
:20124000001B5A6842F400725A601A6842F480721A6038BD5017002088170020C05C0008CC
:20126000C25C000800580040F8B51B4B002283F884201A7106461A46591D92F80441331A93
:20128000A34201F1800517D216F8013B134C203B5F2B28BF0E230C2707FB03431C6806312D
:2012A00041F8064C9C8821F8024C53F8064F9B88C1F87A40AB80E0E706235C43C4F17F04F0
:2012C000224608460021FFF7EAFC28462246BDE8F8400021FFF7E3BC88170020E05C0008EF
:2012E00010B50A4C0A4B221D1A6540F2931298645A64FFF7C9FB00F5DB1101F5BA5104F59A
:201300008470BDE81040FFF73EBC00BF881700200000024010B5104B9968104A53690340BA
:20132000834216D0536913F45F4305D0536923F45F435361002010BD074A094C92688A1A6E
:2013400022F07F42A242E8D9064A012182F81811F0E7012010BD00BF10E000E00058004014
:20136000905F01008817002038B50B4C05462368012043F480732360FFF7CCFF08B9002034
:2013800038BD6D0025610220FFF7C4FF0028F6D0A369012038BD00BF00580040F8B504462C
:2013A0000F46BC421AD80E4B93F81861B6B92046FFF7DAFF78B10B4D04202E61FFF7AAFF14
:2013C0002B4640B12A6842F400722A601A689205FCD42046F8BD0134E4B2E2E70020F8BD7A
:2013E000881700200058004030B5134B04689B78651C1A4321F00F03134305602370046819
:2014000042EA0112651C056043F0040525700468D2B2651C056023700368591C01601A70A2
:201420000368591C016042F0040119700368591C01601A7030BD00BF8817002038B505463D
:20144000074C20610420FFF765FF45F0040323610420FFF75FFF25610420BDE8384059E7FB
:2014600000580040084B5969C80741BF074A92F8192152001A618A0741BF9A695A6822F4A2
:2014800000725A60704700BF0058004088170020724B00222DE9F3415A64714C4FF480529A
:2014A0005A6094F81A21002A00F0A6806D4B2578B3F8253013F0100F637833D0402B04F2B5
:2014C0001B1315D1AA08282000FB0230FFF7CCFE15F0020F05F0010214BF80230023211D2C
:2014E000013204F184001944D2B2FFF727FE12E06A08282000FB0230FFF7B6FEEB070AD4F1
:2015000004F18400211D8022FFF7E2FB03E0536913F45F4F13D1544A536913F0040F13469E
:20152000F5D00EE0B5EB131F47D14F4B5A6912F0040F1A462ED15B6913F45F4FF5D00020DF
:2015400087E0126842F400721A601F6817F40077FBD1434E351D2846FFF744FE2B18184689
:2015600006F184018022FFF7B3FB0346227861780132D2B2B2EBD10F227008BF96F86B2146
:2015800003F1800301BF0132D2B2377086F86B21581B5EE01B6843F400731360136813F4D9
:2015A0000073FBD1237094F86B3130480133DBB284F86B31FFF716FE4BE0402B4FF02800D9
:2015C00004F21B130FD16A0800FB0230FFF74CFE15F0010F0CBF00218021201D01440322DF
:2015E000FFF7ACFD03E000FB0530FFF73DFE013525704FF480702CE0201D9046074694F812
:201600006B3101900133DBB284F86B3194F86C3198451CD24FEA881161F07F0101A801F093
:20162000C0010022124EFFF7DFFE282303FB0866002594F804319D4206D2715D01A80122A6
:20164000FFF7D2FE0135F4E708F10108DEE70198C01BFFF745FE02B0BDE8F0810000024035
:201660008817002050170020005800408C170020A31800202DE9F047254E0029BCBF96F8FC
:201680006C4109190028BCBF96F804410019282404FB01011F4C002AB8BF96F8042121447B
:2016A000EFF311877C1EE4B2CF2C02D9D02484F311880C46984696F804A1FFB218F8019BE6
:2016C000C4EB020E451A8E442544B9F1000F03D1234696F8041111E0C3EB000C5545C444CB
:2016E00002DA04F8019BE9E723466546F1E72A1B1A448A4207DA202203F8012BC3EB0E0243
:201700002244002AF3DC87F31188BDE8F08700BF88170020A318002010B5084C0020014662
:2017200023464FF0FF32FFF7A5FF2346BDE81040002001214FF0FF32FFF79CBF6566000802
:201740000028034B14BF082200229A70704700BF88170020064B1A4693F86B11C9B292F8F8
:201760006B315B1ADBB2012B01D800BFF7E77047881700202DE9F04FBF4DC04EEB6996F862
:201780001971BF4C43F480030037EB6185B020464FF00A014FF0160218BF0127FFF741F90C
:2017A0000B2120461622FFF73CF90A20FFF730F9A36859051BD5A3681A0518D44FF00063DA
:2017C00023614FF0806323610A20FFF721F94FF4806323610A20FFF71BF94FF4006323619D
:2017E0000A20FFF715F9A3685B0548BFA368BFB1A3480A210E22FFF714F90E22A0480B2141
:20180000FFF70FF99F4B00221A6024225A60B422DA6125221A6201221A60002F5ED116E07F
:20182000974C0A2120460822FFF7FBF820460B210822FFF7F6F80A20FFF7EAF8A368580517
:2018400040F13181A368190540F12D81D0E720202721FFF7A3FD30B938203F21FFF79EFD96
:20186000002800F02081884AB2F82530114613F0010F08D19A0708D420F00102A2F13C0438
:201880006242624102E0002200E00122022486F81A2186F86C4192B113F0200F14BF402246
:2018A000202272708A7E082A05D013F0080F14BF1223152300E0102386F804310AE0C3F335
:2018C0004513102B38BF1023282B6C4A28BF282382F8043186F81901FFF71EFF6B4BD0220E
:2018E0004FF0020A83F82123C3F884A14FF0040BC3F804A083F82223C3F884B1614CC3F839
:2019000004B06168624841F4807161606149C8644FF48050486083F80E234FF48042C3F8BC
:201920008021DFF858811A605B49002208F58470FFF724F9FFF7A8F800F5DB1101F5BA519A
:2019400008F58470FFF71FF996F81A91B9F1000F4FD00023242223600193626048F21E02DB
:201960000127E2610C2222622760626808EB0B0942F480726260494912224846FFF7CEFBF5
:20198000A8228DF80C2098F8012009EB0005402A02F1FF3114BF524612228DF80D10DA2159
:2019A0008DF80E108DF80F20284603A95A46FFF7B5FB354A0544B2F82500394A10F0040F43
:2019C00002EB0A01284618BF11465246FFF7A6FB019B054428463370FFF704FC6368284421
:2019E00043F40063C9EB00006360FFF779FC38467FE098F81901FFF7B7FC002852D03020A1
:201A0000FFF71CFD41F20400FFF702F83020FFF715FD6420FEF7FCFF3020FFF70FFD04ADC1
:201A2000202008F10406FFF709FD45F8046D284628214A46FFF7D8FC284608214A46FFF78B
:201A4000D3FC284606214A46FFF7CEFC28460C214A46FFF7C9FC636843F400636360039829
:201A6000801BFFF73DFC002F42D1FFF773FE082388F802303CE000BF00100240881700202A
:201A8000000C0140005800405017002000E100E010580040000002400D110008CD5C0008D8
:201AA000C95C00082FBB144B0422C3F88420BFF34F8FBFF36F8F4FF48042C3F88020BFF3D9
:201AC0004F8FBFF36F8F0D4A0D4813680A2123F0010313601822FEF7A4FF09480B21182213
:201AE000FEF79FFFEB69002023F48003EB6100E0012005B0BDE8F08F00E100E000580040C6
:201B0000000C014008B50C4B4FF400415A695A690A4822F45F425A6100221A60196003F589
:201B2000D4335A644FF480525A60FFF759F8BDE80840FFF71FBE00BF0058004090180020EB
:201B400070B504461026104D4FF000632B610220FEF75EFF14F4004F14BF4FF480634FF052
:201B600080632B610220FEF753FF4FF400632B610420FEF74DFF6400013EA4B2E3D14FF406
:201B800080632B6170BD00BF000C0140014618220148FEF746BF00BF000C014008B50B21E4
:201BA00006220A48FEF73DFF0420FEF731FF0B20FFF7ECFF0220FEF72BFF0A20FFF7E6FFDF
:201BC000BDE808400220FEF723BF00BF000C014010B50C4C0B2106222046FEF722FF042002
:201BE000FEF716FF0B20FFF7D1FF0220FEF710FF20460A210622FEF714FFBDE810400220EC
:201C0000FEF706BF000C014038B540F48074002516480B210622FEF704FF0220FEF7F8FECC
:201C2000E30703D50A20FFF7B1FF04E00F480A210622FEF7F6FE0120FEF7EAFE012C07D198
:201C40000A480A2185680622C5F38025FEF7E9FE0120FEF7DDFE0B20FFF798FF0420FEF7F7
:201C6000D7FE6408D4D1284638BD00BF000C014070B506460324FFF7ABFF3046FFF7C4FFA8
:201C80000546FFF78BFF0DB1013CF4D1284670BD014B1878704700BFF8180020054B1A78BA
:201CA000032A04D1002814BF89208020E0E700B1588845E7F818002037B50023ADF8043042
:201CC0008DF80630013801AA0DF1070110F8013F1BB38A4221D0A3F13004092C04D82A4C3D
:201CE000234413F8303C15E0A3F16104192C04D8254C234413F8573C0CE0A3F14104192C77
:201D000004D8214C234413F8373C03E02D2B0CBF4023002313700132D8E71C4A1478032C73
:201D200024D1FFF755FFC020FFF76EFF08B1012516E09DF80400FFF767FF0028F7D19DF8D2
:201D40000500FFF761FF0028F1D19DF80600FFF75BFF0028EBD1FFF757FF051C18BF012505
:201D6000FFF71CFF6DB1013CDBD10AE09DF804009DF8053043EA0020508003B0BDE8304019
:201D8000DEE603B030BD00BF54610008F818002013B50C4B0C4C1B780421032B14BF64237C
:201DA0004FF47A73B0FBF3F202FB1303074A01A818BF2246FEF788FD01A8FFF77DFF02B0D0
:201DC00010BD00BFF81800200F6600085766000808B50A20FFF7DAFE0B20FFF7D7FE4020FA
:201DE000FFF746FF00280CBF032302230A4A022B137009D109480A211222FEF712FE074888
:201E00000B211222FEF70DFE0548FFF755FFBDE808400120FFF742BFF8180020000C014049
:201E2000656600088378C27843EA02224378007843EA022340EA0320704730B5044614F885
:201E4000013B11F8015B5B1B151BE84201D0002BF5D0184630BD43690239023B99423DBF0A
:201E60004289836A02FB01300020704703685A1C02601B7898B2A0F16102192A02D820381C
:201E800080B270477F2882BF024A9B1813F8800C704700BF78610008F0B505461E461446D6
:201EA00085B001913CB101A8FFF7E0FF013C0028F8D1002039E02B78002B32D1002E30D08A
:201EC000012032E02A2B0FD002A8FFF7CFFF074603A8FFF7CBFF874204461BD1002FEFD088
:201EE000029B1B783F2BEDD100231A460299481C02900C7849783F2C0CBF013201233F293C
:201F0000F4D02A29F2D00399FFF7C6FF0028D7D1039B1C7801A8FFF7A9FF002EC9D0002C55
:201F2000C7D0019B02950393DAE705B0F0BD10B5036893B11A46144612F8011B1F290AD99F
:201F40003A29F8D11A4612F8011B944205D1302903D102330360002010BD4FF0FF3010BD36
:201F600038B50D46044678B103686BB11A785AB18188DA88914207D1587801F027F910F093
:201F8000010001D1236801E0092000232B6038BDCA7E8B7E032843EA022301BF487D0A7D5C
:201FA00042EA002243EA02431846704738B5C36A054699420C460FD0224605F13001012328
:201FC000407801F00BF9002818BF4FF0FF34EC620CBF0020012038BD002038BD002310B597
:201FE000C3704FF0FF33C3620446FFF7DFFF28BB94F82F2294F82E3243EA02234AF6552245
:2020000093421DD194F83030E92B05D0236B0E4A03F0FF13934215D104F166000B490322AE
:20202000FFF70BFF78B104F1820009490522FFF704FF002814BF0220002010BD042010BD93
:20204000032010BD022010BDEB0090005C660008606600082DE9FF4700230B600F46FFF759
:2020600066FF051EC0F2ED807C4E56F82540002C00F0E9803C60237853B9E8B20023237024
:20208000607001F08DF810F0010540F0DE8006E0607801F09BF810F00100EED1DBE0204643
:2020A0002946FFF79BFF022820D104F5FB7717F8040C10B13846FFF7B5FE4DF825000135F4
:2020C000042D07F11007F2D100255DF82590B9F1000F06D020464946FFF780FF012801D8D3
:2020E0000CE003200135042DEFD1B0E00428A94600F0B080012801D90D20ACE094F83C203B
:2021000094F83B3043EA0223B3F5007FF4D194F8477094F8463053EA072704D104F15400BC
:20212000FFF780FE074694F84080A76108F1FF33012B84F80280DFD894F83D50ABB2638124
:20214000002BD9D06B1E2B42D6D194F842A094F8413043EA0A2A1AF00F0FA4F808A0CBD13A
:2021600094F8440094F8433053EA002003D104F15000FFF757FE94F83F2094F83E3053EAAD
:202180000223B9D008FB07F203EB1A1111448842B2D3401AB0FBF5F5002DADD03048854200
:2021A000AAD84FF6F570854208D840F6F57845458CBF4FF002084FF0010801E04FF0030818
:2021C00002354B444944B8F1030F6561C4F81C902362A16210D194F85B2094F85A3053EA00
:2021E000022389D1BAF1000F86D104F15C00FFF719FEAD00606212E0BAF1000F3FF47CAF78
:20220000B8F1020F4FEA45000CBF05464019134418BF05F00105636218BF05EB500505F216
:20222000FF15B7EB552FFFF467AFB388002001339BB2B380E3800B4B84F80080E3602061D3
:2022400009E00B2007E00C2005E0032003E004287FF452AF012004B0BDE8F087FC180020A7
:20226000F5FFFF0F021900200129F8B506460C4653D94369994250D20378022B29D0032B08
:202280003AD0012B49D101EB5105016A01EB5521FFF78CFE10B14FF0FF30F8BD316A6F1C55
:2022A000C5F308053544304601EB572195F83050FFF77CFE0028EED1C7F308073E4496F8C9
:2022C0003000E30745EA00204CBF0009C0F30B00F8BD016A01EB1421FFF768FE0028DAD153
:2022E000640004F4FF743319344493F8303094F8310043EA0020F8BD016A01EBD411FFF76F
:2023000055FE0028C7D1A00000F4FE7030303044FFF788FD20F07040F8BD0120F8BDF8B561
:20232000836904460768056963B32035B5F5001F28D2C5F30806FEB941690133836131B933
:202340003B89B3EB551F17D80023A3611AE07B89013B13EA55230FD13846FFF785FF0128E1
:20236000014611D9431C11D07B699842ECD260613846FFF770FDA06130363E442561E66118
:202380000020F8BD0420F8BD0220F8BD0120F8BD70B58668002305460468036166B92378D7
:2023A000022B01D9636A33B923890BB9022070BD636AAB6114E01E46638963B9314628685E
:2023C000FFF752FF431C064612D00128EED963699842F3D3EAE720463146FFF73CFDA861E7
:2023E000AB696E61002BE1D03034EC61002070BD012070BD2DE9F04F0B7885B02F2B044621
:202400000F46D0F8009001D05C2B01D13A4602E0D9F8103008E0137817462F2B02F1010252
:20242000F9D05C2BF7D00023A3603B781F2B6ED82046802384F82B3005B0BDE8F04FA7E715
:202440002F286DD05C286BD0B5F5807F00F00A8240F2B51100F048FD002800F003827F2893
:2024600004D8B34A12F8013F002B62D12E4628F8020F1AF8010F751C1F28E1D820282F44C8
:2024800034BF04250025012E56D1BBF800302E2B58D100232BF8163004F11F02B34234BFB6
:2024A0002E21202101330B2B02F8011FF6D145F0200584F82B502046D4F800A0FFF768FFC1
:2024C000834668B94FF0FF0846464FF0FF33E3625046A169FFF76AFD8346002800F0078124
:2024E00094F82B30BBF1000F40F0A1815A0700F1CD81A379DB0640F1B281216999F80000CC
:20250000C1F3080130314944FFF742FDA060236807F1FF3AD3F80CB00026ABF10208A8E73D
:202520007B19DD1B13F8012B2F2AFAD05C2AF8D0A4E7834296D195E1022E03D1BBF8023051
:202540002E2BA2D00BEB460304E033F8022D202A03D1013E002EF8D101E02E2AF9D00022BB
:202560000BEB46032BF81620002E00F07B8104F1200204F12B01202002F8010B8A42FAD194
:2025800000223BF81210202901D10132F9E72E29FBD02AB145F00305EDB201E0013E03D0CA
:2025A00033F8021D2E29F9D14FF0000AD04608233BF8120002F1010C00286FD0202804D05E
:2025C0002E2807D1B44500F0538145F00305EDB26246EDE79A4502D2B44517D148E10B2BC5
:2025E00005D145F00305EDB242460B2357E0B44503D045F00305EDB250D84FEA88085FFA4A
:2026000088F8B4460B234FF0080AE1E77F2828D945F00202D2B240F2B5110293CDF804C07E
:20262000009200F047FC9DE8041010F0800F029B05D0404900F07F00085C154611E0FF286C
:2026400010D9591E8A4504D345F00305EDB29A46BEE704EB0A01050A81F820500AF1010A1B
:2026600014E02A4628B1344D15F8011F31B18142FAD142F00302D2B25F2007E0A0F141010B
:2026800089B2192900F2F88048F0020804EB0A0181F820000AF1010A154699E7424694F889
:2026A0002010E52904BF052184F82010082B04BF4FEA88085FFA88F202F00C030C2B03D0AA
:2026C00002F00301032902D145F00205EDB2AE073FF5EFAE02F00302012A04BF45F0100575
:2026E000EDB2042B04BF45F00805EDB2E1E6E5692B78002B00F09880E97AE52B01F03F02D8
:20270000A27100F08580080703D50F2A40F0808001E00F2A5DD194F82B2051067CD45A063B
:202720000CD503F0BF06236995F80D80E36207E065660008786100086E660008B3426AD16E
:202740006B7B434567D1EA7EAB7EDAF80CB043EA02231BB2002B5ED12A780D2102F03F0238
:20276000013A4A4301204B4913F801E005EB0E0191F801C015F80E1041EA0C21C0B1FE2A8B
:202780000393009247D80846029100F0C1FB009A0190531C3BF81200009300F0B9FBDDF87A
:2027A00004C0844537D10299009A0846039B03E04FF6FF7E71452ED101330D2BD3D12B7856
:2027C0005D0652D5002850D03BF81230002B4CD021E086B929465B4605F10B00DA0142EA13
:2027E000530311F8012B1344814203F0FF03F5D198453FF475AE94F82B30D90708D4284635
:2028000004F120010B22FFF718FB00283FF468AE4FF0FF33E362FF262046FFF780FD83467E
:2028200000283FF455AE5BE64FF0040B58E6BBF1040F2BD113F0200F03F0040308D0002B83
:202840003FF465AE802384F82B304FF0000B1DE0002B14BF4FF0040B4FF0050B16E04FF0A1
:20286000050B13E04FF0060B10E0013EF6B2D3E70B2B7FF4C2AEB4E6A0F1610189B2192951
:202880009EBF203848F0010880B2FFE6584605B0BDE8F08FF86100081FB5019004A840F80A
:2028A000041D00911446FFF742FB002812DB0C4B53F820200AB100211170019A0AB100210E
:2028C0001170019A43F8202034B1684601A9FFF7C1FB02E00B2000E0204604B010BD00BFDF
:2028E000FC1800202DE9F04190B0019116460546002833D001A802A9FFF7ACFB044630BB93
:20290000029B10A840F8343D0199FFF773FD0446E8B99DF93730002B24DB9DF81230DB06EF
:2029200022D4029FDDF8288038784146FFF730FBA86008F11C00FFF775FA2F60E860FB884F
:2029400006F00106AB802E746C74EC616C619DF81230AB7124B100232B6001E0092005E04E
:20296000204603E00624F2E70424F0E710B0BDE8F0812DE9F74F984600230F46C8F8003094
:2029800001A905461446FFF7EBFA002879D1687C002876D12B7CDA0772D5EB686869181A23
:2029A000844228BF0446002C68D06B69C3F30802002A46D1019AB2F80A9009F1FF3919EAD3
:2029C000532910D10BB9A86803E02868A969FFF74BFC012801D8022002E0431C02D10120AB
:2029E00068744EE0A861DDF804B0A9695846FFF732FA0028EFD0660A00EB090A12D0BBF87F
:202A00000A3006EB09029A4288BFC9EB03069BF8010039465246334600F0E0FB0028DED1DA
:202A2000730220E0EB69534509D09BF8010005F120015246012300F0D1FB0028CFD1C5F8B4
:202A40001CA06A69791EC2F30802C2F50073A34228BF234620322A44D01812F8016B824250
:202A600001F8016FF9D1D8F80020E41A1A44C8F800206A691F4413446B6194E7204600E0DD
:202A8000072003B0BDE8F08F13B501A90446FFF767FA00B9206002B010BD30B591B010AB8C
:202AA00043F83C0D184602A9FFF7D4FA044600BB029B10A840F8343D0199FFF79BFC044651
:202AC00090B99DF93730002B03DA059A029B1A610FE09DF81230DB060AD5029D0A99287889
:202AE000FFF756FA286104E0042808BF052400E00524204611B030BD73B50D4601A904467B
:202B0000FFF72EFA00285CD1607C002859D1E3689D4228BF1D46636960610DB900253CE00C
:202B2000019A568976026BB1013B6A1EB2FBF6F2B3FBF6F18A4205D3724213406361ED1A23
:202B4000A16901E0A168A1610029E7D0B542636916D9334463612068FFF786FB431CA5EBC4
:202B60000605014601D1012006E0012803D9019B5B69984202D30220607422E0A061E5E751
:202B80002B446361C5F30803002BC7D00198FFF762F90028EFD000EB55256069C0F30800C3
:202BA00078B1E3699D420BD0019B04F1200158782A46012300F012FB0028D4D1E56100E0E0
:202BC000002002B070BD1FB50446019128B301A803A9FFF73FFAE8B9039B20462360019925
:202BE000FFF708FCF8B994F92B30002B08DBA379DB060ED5039BE1691878FFF7C9F9A06024
:202C0000039B2046DB88A380FFF7C2FB0346042B05D105200023236008E0092006E0002B3C
:202C2000F8D1184602E00428F4D1F2E704B010BD13B501A90446FFF793F900B9206002B017
:202C400010BD2DE9F3470E4601A90546FFF788F9002840F003811EB92846FFF799FBFDE00F
:202C6000FF273C46D5F800800420A969002975D04046FFF79BF9002871D1EB691A78002A31
:202C800000F0EA80D97AE52A01F03F01A9715ED02E2A5CD021F02000082858D00F2943D1A6
:202CA000510605D502F0BF042A695F7BEA6201E0A2424CD15A7BBA4249D1D97E9A7ED8F869
:202CC0000CE042EA012212B2002A40D119780D2021F04001013941434FF0010C614812F8ED
:202CE000009003EB090090F801A013F8090040EA0A20BCF1000F06D0FE2928D82EF81100CC
:202D00008446013103E04FF6FF7948451FD101320D2AE3D11B785B0640F19B80FE2916D827
:202D200000232EF8113094E06CB903F10B01E20142EA540413F8012B14448B4204F0FF04B6
:202D4000F5D1A74210D04FF0FF33EB620CE0FF242846FFF7E4FA002887D000E020B1002382
:202D600010F0FB0FAB6179D10027D5F80080B775AB69002B66D0EB6A01331CD03C46D8F817
:202D80000C30D85BA0B140F2B51100F093F808B900240DE0FF2881BF3319020A01349A752B
:202DA000FE2C07F10207F3D8331998750134E6E734440023A37500231A46B17DEC69501C9D
:202DC000A25C202A21D0052A08BFE522092806D1F41809B92E27A7752E2767720133F41808
:202DE000627289B9A2F14107192F0CD8EF6908283F7B8CBF4FF0100E4FF0080E1EEA070F59
:202E00001CBF2032D2B2A27501330B280246D5D131B9F2189175EA69127B002A08BF0023A7
:202E2000002233445A72EB69DB7A3372E8691C30FEF7F8FF3060E8691630FEF7F3FFF080D8
:202E4000000CB0802846FFF76AFA042808BF002004E0013CE4B27BE7042080E702B0BDE860
:202E6000F08700BFF861000870B506460D4630462946FFF7E6FE044658B955B1AB7D43B1BB
:202E8000306B05F1160122462346FFF705F80028EDD0204670BD38B50D4603631146044607
:202EA000FFF791FE28B920462946BDE83840FFF7DBBF38BD7F2813D940F2B513994201D0FC
:202EC00000207047002307499AB231F81310814203D00133802BF6D11A4602F18000C0B28F
:202EE000704700BF066200087F280DD940F2B513994208D1FF2806D8044B00F10040803874
:202F000033F8100070470020704700BF066200081F4B70B5A3F1BC02B0F5805F28BF134614
:202F2000191D31F8043C0A4683B398422ED331F8024C250AE4B21E19B04221DA082D25D8FF
:202F4000DFE805F005090E10121416181A00C01A31F8100070BDC31A03F00103C01A0DE040
:202F600010380BE0203809E0303807E01A3805E0083003E0503801E0A0F5E35080B270BDAC
:202F80000431002DCDD102EB4403C9E770BD00BFC263000870B506460D460024EB0704D581
:202FA000304621461822FDF73CFD0134102C4FEA5505F3D170BD10B517480B210822174CFB
:202FC000FDF72FFD082214480C21FDF72AFD20464FF6FF71FFF7DEFF0520FDF719FDA368DB
:202FE0000F4AC3F3033313703BB904210A480222FDF717FD49F61F7101E041F6077181F49E
:203000007F41054881F0FF01FFF7C4FFBDE8104004484FF6EE51BDE7000801400010014076
:2030200024170020000C0140024A536943F480535361704700100240034BE02283F84323E8
:2030400008229A60704700BF00E100E070477047FDF7DEBCFDF7E0BC034B9B68036042F2A1
:20306000283359434160704710E000E010B5094B41689C68036800221B1B23F07F439942F8
:2030800089BFCB1A42604360046094BF0120104610BD00BF10E000E0014800F0FBBC00BF85
:2030A000041B00207047024B00221A70704700BFB41E002070477047014B00221A7070479C
:2030C000B41E002070477047704770477047704770477047704701207047024B01221A70BD
:2030E00000207047B41E00207047024B00221A70704700BFB41E002010B5074CD4F8943047
:203100005B6C9847054A0C2323711378012043F00103137010BD00BFB41E002004000020EF
:2031200007B5054B054800930121054A054B01F0A0F803B05DF804FB08000020041B0020EB
:20314000B81E002068000020014B1860704700BF4C1F00200148024901F086B9041B002029
:20316000B81E002008B5054B187828B1044800F068FC003018BF012008BD00BFB41E0020A5
:20318000041B002008B5FFF7EDFF20B1034B187B003018BF0120C0B208BD00BF0820002039
:2031A00008B560B9FFF7DEFF28B1064B187B002818BF042000E00120034B187008BD0420C6
:2031C00008BD00BF082000200400002010B9024B187870470120704704000020F8B50F46A4
:2031E0001646D0B9CBB1104A1278D20717D45D020E4800F026FC68B1394632462B460B482B
:2032000002F016F904460A49084801F009FD032CEED034B1BDE8F8406EE70420F8BD0320C9
:20322000F8BD2046F8BD00BF04000020041B0020B81E0020F8B50F461646E0B9DBB1124AC7
:203240001278D10719D4520719D45D020F4800F0F8FB68B1394632462B460C4802F09EF8E3
:2032600004460B49094801F0DBFC032CEED044B1BDE8F84040E70420F8BD0320F8BD0220DE
:20328000F8BD2046F8BD00BF04000020041B0020B81E002040B9064B1B78DB0706D4002984
:2032A0000CBF00200420704704207047032070470400002037B505460023114C0193032001
:2032C000FFF7C6FEEA68013C1369019314D0019B002BF4DA019B43F001030193019B1361A5
:2032E000E968074B0A69013B019202D0019AD207F8D40320FFF7ACFE002003B030BD00BF95
:20330000410D030010B5C4786CB900EB820022460333D0F8D0009B109A4204D051F822408D
:2033200001320460F8E7002010BD10B50332D0F8D03092100020904204D01C6841F82040E3
:203340000130F8E701EB800010BD0122F0B50023827001294FF04002C37082800CD108235F
:203360000370042343704FF4A073C38002230372C1724FF0A04309E041B90C2303700623CA
:2033800043704FF4A063C380214BC17203F50062026101461A464578C3600024AC4202F109
:2033A000200601F1040108D202F5106702F530620A654F6101343246F0E7044603F5806258
:2033C000426103F58862C0F8CC2014F88C2B03F5A06103EB421505F5A065A94203D044F8CA
:2033E000041F2031F9E703EB023203F5805100F1CC0402F58052914204D044F8041F01F508
:203400008051F8E703F56063C0F80C310020F0BD0000044038B5037A0546012B4FF0000417
:20342000C26820D1936B417A64F3104309B143F480139363EA682846D3686FF386136FF33C
:2034400096536FF351436FF3D343D360FFF732FFEB78012B19D1052363F34404EB6844F0F5
:2034600020049C6011E0D36843F04003D360FFF721FF6B7AEA68002B0CBF4FF434134FF447
:20348000741393631420FFF7E5FDEB780020012B01BFEB6805229C6862F3440404BF44F022
:2034A00020049C6038BDC2680020936843F0010393607047C2680020936823F00103936082
:2034C000704707B500230193019B01F01F0143F020030193019B23F4F86343EA81110191CC
:2034E000C368019A1A61C168074B0A69013B019202D0019A9206F8D40320FFF7A9FD00201E
:2035000003B05DF804FB00BF410D030007B500230193019B43F010030193C368019A1A616A
:20352000C168074B0A69013B019202D0019AD206F8D40320FFF78CFD002003B05DF804FBF4
:20354000410D030008B5C2680129D3686FF35D736FF39E7302D143F0005302E009B943F0F9
:203560008043D3603220FFF775FD002008BDC368586900F001007047C368586900F0010045
:2035800080F001007047C368586900F001007047C3685A69986910407047C36858687047D7
:2035A0004369986800F0010080F001007047C26800239361C1684FF0FF324A61C1684A60EE
:2035C000C2686FF080415161C2680A499161C278C1689A4208BF10238A6943F04873134310
:2035E0008B61C2680020936923F0005323F0080393617047000800804269136861F3010364
:2036000013607047D0F8CC30186820F02E00704738B504460D46FFF719FD2046FFF7F2FF64
:20362000C20406D4012D02BFD4F8CC3040F480501860C30405D525B9D4F8CC3065F30C30DC
:20364000186038BD43695869704738B50546FFF7D9FFD5F8CC3040F480741C606420FFF7EC
:20366000F9FCD5F8CC306FF308241C601420FFF7F1FC012038BD70B50446FFF7E8FCD4F840
:203680000C3100251D60237A2046012B0CBF29460121FFF7B1FF2046FFF7D7FF62692E46A9
:2036A00013686FF382031360E37A012B10D1802363F30F05C0F26005E2685362E3689D625E
:2036C000E02363F30F06C0F26006E368C3F8006110212046FFF7F5FE2046FFF717FF04F116
:2036E0008C02002321788B4209D252F8041F4FF0FF30886011680020C8600133F2E72046E1
:203700000121FFF785FF2046FFF751FF002070BDF0B500EB8106D6F890304FF0FF349C6001
:203720004C1DC37800EB441595F81551012B4FF0000214BF13460423032D2DD8DFE805F0FD
:203740000221021600EB441505F58875AF7843F4936343F0010317B143F480731CE02D79D4
:2037600043F04003C5B143F0200315E000EB441595F8125143F4D36343F00103002DEBD151
:203780000AE000EB441595F8125143F4087343F001030DB143F4C073D6F89050EB60476951
:2037A0000123BD698B402B43BB61C16800EB44108B6943F000738B6190F8101161F39C5291
:2037C00090F8111161F3CE2290F8121161F3CF3290F813118B1E5942594161F3514290F802
:2037E0001511B0F8163161F3934263F30A020329D6F8903008BF42F000521A600020F0BDDD
:203800002DE9F0470E467701C519D5F8C03186B00446002106F105088BB100EB4812B2F823
:203820001621013B1344B3FBF2F39BB2B3F5807F06D91202C5F8C0214FF4807300E001236C
:2038400004EB481292F8120102F5887218B1D2885A43C5F8C021D5F8C02104EB860A62F3B1
:20386000120163F3DC41E31903F5DC7293F8B831204663F35E71DAF890301961E378012BEE
:2038800002BFDAF8903052685A61DAF890301B689946FFF785FE60F35D79DAF8903049F0FF
:2038A00000496FF39E79C3F80090E378002B38D104EB481808F5887898F80230002B30D132
:2038C000D5F8C031002B2CD098F80520032A1FD8DFE802F002100210E1680333CA6AC3F3E4
:2038E0008F03039292B29A4212D28B6943F020038B610DE0626903331269C3F38F03019223
:2039000092B29A423FBFE268936943F08063936127442046D7F8BC113246B5F8C031FFF7C0
:20392000F1FC002006B0BDE8F08710B500EB8101D1F8904086B0236843F080435A0355BFB5
:20394000C2684269D26A1269C2F3074212B962F3DF732360D1F8902043F000430020136066
:2039600006B010BD10B500EB8101D1F8900001244FF0004364F3DC430361D1F8901000222D
:203980000B68104643F0004362F39E730B6010BD10B50446436900229A6143694FF0FF3157
:2039A000596100F18C0123789A420BD251F8040F013203686FF3DF7343F080436FF3CF3373
:2039C0000360F0E72046FFF7A1FD2046BDE810401021FFF776BD00BF38B504460023C0F82D
:2039E000103104EB83020025C2F81851C2F85451E21801330F2B82F89051F2D10823A4F81E
:203A0000B6312046FFF7A1FC2046FFF753FD2046FFF700FD01212046FFF794FD2046FFF756
:203A20002AFE2046FFF73FFD284638BDD0F8CC301868C0F34140704708B5FFF706FE00205D
:203A400008BDD0F810017047D0F8140170474369986880B27047014491F89F01704754313E
:203A600000EB810040687047014491F89001704708B5FFF74DFE08BD0A4638B50E32002401
:203A8000451800EB421385F89F415C60FFF7B8FE38BD00002DE9F04F89B00446FFF773FD91
:203AA00008B90020A2E32046FFF772FD00900028F7D09DF8007007F0080303F0FF0643B163
:203AC000B04B20461B6801261B689847E36808225A61FB0663D5E26800268DF813609369AC
:203AE00023F010039361E3681A6AC2F303038DF813305FFA83FA9DF8133004EB8303D3F86C
:203B000090301D68C2F34343022B42D1C2F30A18B8F1000F3DD09DF8133004EB4313D3F861
:203B2000BC31B3B39DF81330424604EB4313D3F8BC112046FFF7F9FB04EB4A13D3F8BC21B1
:203B40004244C3F8BC21D3F8C4214244C3F8C4219DF8133004EB4313D3F8C4219DF81330CC
:203B6000543304EB83035A609DF8133004EB8303D3F890301B69C3F3C94353B19DF8133095
:203B800045F0004504EB8303D3F8903066F39E751D60E2680126936943F010039361BF0656
:203BA00039D5E368D4F8C061DB6A03360593C6F38F06BDF81450B5422CD9D4F8C0314BB38B
:203BC000AD00ADB29D4282BFE2689DB29369204684BF23F020039361D4F8BC112B46002225
:203BE000D4F8C061FFF78EFBD4F8BC3103362B44C4F8BC31D4F8C031C6F38F065B1BC4F812
:203C0000C031D4F8C4311D44E368C4F8C451DB6A0593CEE70126009B4FEA136A1AF0040F4E
:203C200039D06369D4F8C0611B6903360593C6F38F06BDF81450B5422CD9D4F8C0314BB34F
:203C4000AD00ADB29D4282BFE2689DB29369204684BF23F080639361D4F8BC112B460022E4
:203C6000D4F8C061FFF74EFBD4F8BC3103362B44C4F8BC31D4F8C031C6F38F065B1BC4F8D1
:203C8000C031D4F8C4311D446369C4F8C4511B690593CEE701261AF0020F00F02482204665
:203CA000FFF7D0FC0022A0469346019004F1900721788B4580F01682BDF8041041FA0BF1D3
:203CC000CD0740F109823D682A6812F4004FAA68E96800F0168101EA020C5FFA8CF14807C0
:203CE000D5F8009007D50421A9603868C16841F00201C1603DE001F0200303F0FF0013B158
:203D00002021A96035E00A0719D5E9684FF0050E41F00201E96004EB0B0181F890E110210F
:203D2000A960082160F3041CA96020465FFA8BF1CDF808C0CDF80CC0FFF7F7FD17E01CF48B
:203D4000806F16D0E968204641F00201E9605FFA8BF1CDF808C0FFF7E8FD1021A9600820BB
:203D600004EB0B0181F890014FF48061A960DDF808C01CF4007F07D03968CA6842F0020205
:203D8000CA60DAE0500000205FFA8CFC1CF001003DD0E17801290BD139680869D8F8C011C2
:203DA000C0F31200081A0BF1540104EB8101486001200BF14601002304EB0B0E8EF890010C
:203DC00044F82130C9F307414B07A86012D439682046CA6842F00202CA605FFA8BF1FFF7AE
:203DE000A4FD1022AA6098F8C82182F0010288F8C82170E101F00C010C2940F06C8139684D
:203E000049F00059C1F800908EF89F0163E11CF0020F33D03B68D96860F34101D96004EB9C
:203E20000B0090F89011C9B2012902D180F89F114FE190F89011052901D104220DE090F8BA
:203E40009011062903D090F89011082908D10BF14602002144F82210032280F89F2138E143
:203E6000C9F3074202F00C020C2A40F0328198F8C82182F0010288F8C8212AE11CF0800F27
:203E80000FD039682046CA6842F00202CA6004EB0B02062182F890115FFA8BF1FFF745FD5F
:203EA000A7E01CF0100F00F01681C9F3074C0CF00C010C290FD13868C16841F00201C1607E
:203EC000E17841B920465FFA8BF1CDF808C0FFF72CFDDDF808C004EB0B01032081F89001E3
:203EE0001021A9600CF0040101F0FF00002940F0F28049F00049396860F39E79C1F80090F6
:203F0000E9E01140C8B242072B6807D50422AA603968CA6842F00202CA60DCE0820601D5D8
:203F20002022D7E0C1F3072101F0020202F0FF0C5AB1EA6842F00202EA6020465FFA8BF1A2
:203F4000FFF7F3FC4FF40072C4E0C20713D50BF1460244F822C0EA685FFA8BF142F00202B3
:203F6000EA602046FFF7E1FC012204EB0B01AA6081F89021B0E000F0080202F0FF0C7AB1BA
:203F80000822AA6039682046CA6842F00202CA605FFA8BF1FFF7C9FC04EB0B02052115E0AD
:203FA000C20616D50BF1460244F822C0EA6842F00202EA60E27822B920465FFA8BF1FFF7B4
:203FC000B4FC1022AA60032104EB0B0282F8901181E002060FD5EA685FFA8BF142F0020210
:203FE000EA602046FFF7A1FC04EB0B02062182F8901180226EE0420615D50BF146020021B9
:2040000044F82210EA6842F00202EA60E27822B920465FFA8BF1FFF788FC4022AA600421E5
:2040200004EB0B02D2E701F0040101F0FF0C91B1EA685FFA8BF142F00202EA602046FFF794
:2040400074FC1022AA60082104EB0B0282F890114FF480623EE082073DD5EA686CF34102A2
:20406000EA6004EB0B0292F89011C9B201290ED182F89F11C3F3074202F00C02082A28D1F7
:2040800098F8C92182F0010288F8C92121E092F8901103290ED092F8901104290CD198F8CC
:2040A000B411012906D120465FFA8BF10292FFF759FC029A02210AE092F89011052901D14C
:2040C000042104E092F89011062902D1032182F89F110222AA6001220BF1010B043708F1CF
:2040E0002008E5E516431AF0010F61D0D4F8CC30D3F800801D685FFA88FB6FF382056FF36B
:2041000041056FF3C3050BF002036FF3451503F0FF073BB1374B20461B6845F002055B6824
:20412000984701271BF0080F38D01BF0040F45F00805DFF8C0B02CD0C8F3074303F00603AA
:20414000042B01D0022B19D16169042B0A6815D141F270734B6002F00303022B0ED0217A98
:20416000022901D1204607E04BF680316269012B516003D020460121FFF73EFADBF80030CF
:204180002046DB689847E268936943F00053936104E0DBF8003020461B69984718F0200FF0
:2041A000D4F8CC301CBF45F0200501271D603E431AF0200F09D00F4B20461B6801269B685D
:2041C0009847E3684FF000525A61009B9B0251BF3046D4F890200120136841BF43F04043DD
:2041E0001360E3684FF4001248BF5A6109B0BDE8F08F00BF500000200123C0F810310020A1
:2042000070470123C0F81431002070470023C0F81431184670470020704738B5044600218B
:20422000FEF714FFE36800259D61E3684FF0FF325A612046FFF73EF9C4F81051284638BD7F
:2042400070B506460C46002501234022CB700B778A7181F821300D704D708D7081F820504E
:20426000097900F068FB3046617900F064FB284670BD2DE9F0411446054698460E46069F6C
:20428000FEF7D2FE0020FEF7E2FE21462846FFF7D7FF3146C4F88C80C4F890702846FFF764
:2042A0009BFBD4F890301B6898472846BDE8F041FEF7C2BE0B1F012B10B5044606D8D0F8B6
:2042C00090305B6C98470C23237010BD062907D1BDE810400C230370D0F890301B681847E1
:2042E00010BD38B500238B740B7F0C46013B0A2B00F2B680DFE803F0060C30374B586970BE
:204300008595A5001431627900F054FB02239FE04979FFF7A0FB012817D1237D628B23F0D7
:204320007F03DBB23AB10BB1032300E00523237741F2883105E00BB1092300E007232377A2
:2043400032214848FEF788FE8AE0032801BF0B2323770523A37483E023798968A28900F098
:204360005CFB042374E00979FFF775FB012802D10923237705E004281FD0032801D10B2396
:2043800066E03848FEF772FE0028F8D168E04B79012200EB431383F8C92163798968A28934
:2043A00000F01DFB062353E04979FFF754FB012801D107234CE0042803D1637823700C23A4
:2043C00046E002283AD1052342E0002123790A4600F023FB08233BE00979FFF73CFB0128FF
:2043E000054623D00328CAD01E48FEF73FFE0028C5D1042D34D16378032023700C232377D4
:2044000038BD4B79002100EB431393F8C92182F0010283F8C92163790A4600F0E0FA0A230F
:2044200016E04979FFF717FB012803D1637823700D230DE0022801D1092309E003280FD118
:204440009DE78B7B0133DBB2022B8B7302D80123237705E008238B744B7802200B7038BDEA
:20446000002038BD501F002070B5022394B005460C468DF80F30FFF7E4FA30B923784BB155
:20448000032B1CBF0323237004E02846FFF7DCFA0028F3D023780C2B00F2AA81DFE813F098
:2044A0000D0020002B008C01A80167005B01690177014B01A801A8017C012846FFF7C1FA8F
:2044C000002800F09581012323706420FEF7C2FD2846FFF7B1FAD4F89030DB68984787E19A
:2044E000D5F81431012B40F08381022323703220FEF7B0FD7CE1D4F890309B6898470021B2
:20450000284600F0FEF980216071284600F0F9F920712846FFF790FA0646002840F0688178
:20452000D4F89030DB6898472846FFF77FFA05232370C0B2D4F8903084F821009B699847B7
:20454000A079217994F8202094F8213001900096284600F089F9A0796179019094F82020A8
:2045600094F821300096284600F07EF940E1A378092B00F23D81DFE813F010002E003E008D
:20458000660075008900A200BB00D3000A00D4F890305B6B98470923E9E028462146082258
:2045A00000F0BBFF0646002840F0228194F829300122A371A27061790090019332463346ED
:2045C000284600F07DF9A37921790193009628463246334634E028462146122200F09DFF1F
:2045E000002840F00581D4F8903004F12200DB69984702239DE028462146012200F0FCFF92
:204600000646002840F0F4800220FEF723FD012384F82030D4F890301B6A98470323A37032
:20462000217994F82020334600960196284600F047F928463346617994F820200096019616
:2046400000F03EF9D4E028462146092201F00CF9002840F0CD80E38EB3F5806F00F2C880A2
:20466000042366E028462146E28E01F0FDF8002840F0BE80D4F8903004F134005B6A04F19D
:204680003E0104F150029847052352E094F8302072B1FF2300932846214604AB00F084FFB0
:2046A000002840F0A580D4F8903004A89B6A03E0D4F890304F489B6A9847062339E094F888
:2046C000312072B1FF2300932846214604AB00F06BFF002840F08C80D4F8903004A8DB6AF2
:2046E00003E0D4F890304348DB6A9847072320E094F832206AB1FF2300932846214604AB40
:2047000000F052FF002873D1D4F8903004A81B6B03E0D4F8903037481B6B9847082308E0C8
:204720002846214694F8392000F074FF00285FD10923A3705CE0D4F890309B6B98470128EF
:2047400056D1D4F88C3028461B682146984700284ED106230BE0D4F88C3028469B682146B8
:2047600098478DF80F009DF80F3053B9072323703EE0D4F88C302846DB68214698478DF807
:204780000F009DF80F102046FFF794FD30E028462146FFF7A6FD2BE021462846FFF750FDC8
:2047A000D4F890305B689847D4F88C3028465B6804F1200198471BE0D4F890301B69984733
:2047C00021462846FFF73CFDD4F890305B689847D4F88C3004F120015B682846984728468B
:2047E00000F0B5F80023237028460121FFF7F4F814B070BD7666000870B5D0F80C210546BA
:204800001368002623F001031360D0F80C21136823F003031360FEF7F5FE0446D5F8CC3076
:2048200066F3C71444F040041C601420FEF712FCD5F8CC3066F386141C6070BD10B50446A5
:20484000FEF7E0FED4F8CC3040F080001860D4F80C21136843F001031360D4F80C21136803
:2048600043F00303136010BDF8B54D1D00EB451501F5E47430F8146085F810219DF81820FE
:2048800006F07F0785F81521BDF81C20C6F3C016A5F8162105F58874002285F8117185F801
:2048A000126185F8133100EB411585F8C82185F8C9210BB901232371FEF72AFF0020F8BD47
:2048C00070B54C1DBDF814501AB100EB441686F8102100EB4412B2F8166102F58872AE422F
:2048E00001D005B1D58000EB441494F8132104F588749A4201D003B1E370FEF709FF002013
:2049000070BD30B5002300F28E3434F9025FDAB2002D09DB6FEA41416FEA514103F5E4736E
:2049200092B220F8131004E00133082BEDD14FF6FF72D0B230BD07299FBF00EB4100B0F868
:204940009033C3F30E03A0F89033002070470023A0F89433A0F89633A0F89833A0F89A33F0
:20496000A0F89C33A0F89E3318467047C87810B5012804D002284FF0010309D018E00C788E
:204980008B814C7008240C708A600877022308E00A7F0D2A03D10020CB70087710BD0B2AC1
:2049A00001D1CB7010BD0C2A02D1CB70032010BD184610BD38B500EB4214002584F8B251EC
:2049C00000EB4214C4F8BC1103250821C4F8C01184F8B8511146FFF74FF8C0B238BD38B5C2
:2049E00000EB4314002584F8B2515C010519C5F8BC1100EB4311C1F8C02112B9012285F888
:204A0000C921021992F8C91101B1022182F8B8111946FFF731F8002038BD70B500EB43151A
:204A2000012685F8B2610226C5F8BC1185F8B861C5F8C0211946FFF71FF8002070BD38B533
:204A400000EB4314002584F8B25100EB4314C4F8C02194F8C921C4F8BC1102B1022284F83F
:204A6000B8211946FFF708F8002038BD38B500EB4314C4F8C02194F8C821012584F8B2510D
:204A8000C4F8BC1102B1022284F8B8211946FEF7F3FF002038BD38B500EB4314012584F835
:204AA000B2515C010519C5F8BC1100EB4311C1F8C02195F8C82102B1022285F8B82104442A
:204AC00094F8C821194682F0010284F8C821FEF7D3FF002038BD38B500EB4314002584F87C
:204AE000B2515C010519C5F8BC1100EB4311C1F8C02195F8C82102B1022285F8B8210444EA
:204B000094F8C821194682F0010284F8C821FEF7B3FF002038BD70B500EB43150024012678
:204B2000C5F8BC1185F8B261C5F8C02185F8B8411946FEF7A1FF204670BD70B500EB431657
:204B4000002586F8B25100EB4316C6F8BC11C6F8C02186F8B8511946FEF78EFF284670BD3E
:204B600008B5FEF76EFF084B40B1084A084983E8060000225A73012283F8232000221A634F
:204B8000044B1A7008BD00BF5C1F002050403020555342430620002008B52AB1012A09D12D
:204BA000094B9A785B7802E0074BDA781B7800F069FD00E00120054A136B0133052B1363A5
:204BC00028BF042008BD00BFBC1F00205C1F002038B50546FEF735FF0E4C08B9012015E01E
:204BE0000D4B28461978FEF73AFF0D280DD1626B0A4B9A4209D1A26B63689A42EED194F846
:204C0000400018B10228E9D100E0022084F82F0038BD00BF5C1F0020BC1F00205553425373
:204C20002DE9F04705460E46FEF70BFF002800F07A81BE4C94F82430013B072B00F2738138
:204C4000DFE813F008001A004100A400F300170150016201B64B28465B78B4491F22FFF74E
:204C6000EEFE012384F82530022384F82430002384F84430BDE8F087AD4B28465978FEF703
:204C8000EAFE012814D100222263022284F82520A268A64B217B4AB19A649A6ADA641A6541
:204CA0000A0601D5032337E1042229E1052333E1022800F02F81042840F0B480012384F86A
:204CC0005430082328E19A4E28463178FEF7C3FE0128374604D094F82520944B032A30D010
:204CE000924E03234FF0000906F1580041F2883184F82530C4F83090FEF7AEF9A36CBA88F1
:204D0000DFF82C8293420FD998F800302846F16CFFF7ACFEB8F80430B26CD21AB264F26CC4
:204D20001344F364BDE8F087002BBFD09AB22846F16C98F80030FFF799FEC6F84890BDE850
:204D4000F08704280AD1002283F85420072283F82420052283F82520BDE8F087032809D1D4
:204D600093F844200132D2B2022A83F8442099D9022307E003F15800FEF778F9002800F03A
:204D8000D280012384F82F30BDE8F087684F28467978FEF760FE012829D1042384F8253022
:204DA000FA88A36C4FF000089342604EC4F8308010D97B782846F16CFFF741FEF36CFA886F
:204DC00033651344F364B36C86F844809B1AB364BDE8F087002B3FF469AF9AB22846F16CB7
:204DE0007B78FFF72CFEC6F84880BDE8F08702280BD1E16C236DFA88994228467B7818BF86
:204E0000891ABDE8F047FFF71ABE04280AD1012384F85430082384F82430052384F8253026
:204E2000BDE8F08703287ED144E0052384F82530404B3F22A362A28503F10D02013300264A
:204E400002F8016D9A42FAD1394B284639491B783F2284F83460FFF709FE062384F82430D5
:204E600084F84460344841F28831BDE8F047FEF7F3B82F4B28461978FEF7EDFD012810D1CC
:204E800000232363052384F8253094F822302846314684F82030FFF79BFE84F82F00BDE802
:204EA000F087042804D1002384F85430072333E003280FD194F844301C4A0133DBB2022BBB
:204EC00084F844303FF654AF92F8253082F82430BDE8F0871848FEF7C9F800287FF451AF30
:204EE000BDE8F087284631460022FFF755FEB8B994F854200D4B022A14BF93F82520082284
:204F000083F82420BDE8F087284631460122FFF743FE28B994F8253084F82430BDE8F087C9
:204F200004283FF425AFBDE8F08700BF5C1F0020BC1F0020901F0020B41F0020014B00209F
:204F4000187070477C1F002070B50C4C0546617839B1FEF7EAFC28466178FFF7ECFC0023A9
:204F600063702178054E41B12846FEF7DEFC28463178FFF7E0FC0023337070BDBC1F00206C
:204F8000F7B591F843300646082B0D463ED191F84530502B3AD191F85230204C13F0800FFB
:204FA00008BFA370B1F8542018BFE37091F85A3014BFA280E28013F0800FB1F85C2008BFE8
:204FC000A370A1781ABFE370A280E280FFF799FCE17860703046FFF794FC2070E088022724
:204FE000617895F8202095F82130019000973046FFF73AFCA0882178019095F8202095F8B7
:20500000213000973046FFF72FFC03E0D5F890301B6C9847002003B0F0BD00BFBC1F002001
:20502000012811D10A4A92F84A300133DBB2092B82F84A3004D8074B06221A70D870704745
:20504000044B0A221A7070470228F9D0704700BFBC1F00207C1F00202DE9F04104460E4690
:20506000FEF7EFFC00287DD0414D2B780A2B79D8DFE803F008780D444B526E5D6237060092
:20508000042472E02046FFF76BFD02235BE0A1233375384FFE2373754FF001080023F38296
:2050A00033832046A6F81A80314607F108024346FFF75CFC044678B93B7A87F848304BB129
:2050C00097F84B3033B9D6F8903087F84B801B6C98474AE0032341E0032846D168700923E5
:2050E0003CE0204631460022737900F0CBFA044600283AD11F4B83F848002EE0204600F0E6
:205100003BF8044660BB04230CE0204600F06AF8044628BB052305E0204600F0AFF80446AB
:20512000F0B908232B70134B83F84A401DE020463146FFF775FD15E0D6F89030DB6B9847B3
:20514000C0B210B908232B700CE001280AD10BE0204600F0D9F8044610B96B782B7004E0D7
:20516000FFF75EFF012400E006242046BDE8F0817C1F0020BC1F002070B5FEF762FC40B310
:20518000154DEE78012E02D0022E17D021E0134806238373124B002181600173AB600324AF
:2051A0003F230F301022AB81AC70FBF778FD07232B7002232E71EC73EB700AE0E87B28B104
:2051C000012801D1E87070BD022802D10123EB7070BD032070BD00BF7C1F00205C1F002041
:2051E000901F002070B5FEF72CFC00283CD01F4CE678012E02D0022E1BD035E01C4D0823DC
:20520000AB6080232B730A23AB731A4B05F10F001B680021A36010220423A370FBF73FFD4C
:205220002523EB730320072323702671E073022318E0E07B78B90F4B1A680F4B1178D9704D
:205240005178997091785970D178197091795972D2791A7205E0012801D1E07070BD0228A5
:2052600002D10123E37070BD032070BD7C1F00205C1F00204C1F002008200020F8B5FEF79C
:20528000E0FB002835D01C4CE678012E02D0022E1DD02EE0194D80232B730623AB73184BC3
:2052A0003F271B6805F10F00A360002105231022A370AF60FBF7F3FC1A23EB730320072397
:2052C00023706F74EF742671E07302230FE0E07B30B90B4B0B4A1B689B78DB09137305E023
:2052E000012801D1E070F8BD022802D10123E370F8BD0320F8BD00BF7C1F00205C1F002098
:205300004C1F002008200020F8B5FEF79AFB002839D01E4CE678012E02D0022E1CD032E05B
:205320001B4A1C4D12688023A260A2783F272B736270062305F10F0000211022AB73A370DE
:20534000AF60FBF7ACFC032007232370E873EF742671E073022314E0E07B58B90C4B1A68BE
:205360000D4B1178D9715178997191785971D2781A7105E0012801D1E070F8BD022802D1A5
:205380000123E370F8BD0320F8BD00BF7C1F00204C1F00205C1F0020082000202DE9FF41CB
:2053A000884601921E46FEF74CFBC0B31E4DEF78012F02D0022F27D031E01C4C0A220021B7
:2053C000A27304F10F001022A6602173C5F80880FBF765FC2A23E3739DF80730760A63748A
:2053E0009DF806300320A3749DF80530E675E3749DF804302F712375C6F30723A375072306
:205400002B70E873022308E0E87B28B1012801D1E87005E0022802D10123EB7000E0032096
:2054200004B0BDE8F08100BF7C1F00205C1F00202DE9FF47284E4FF003088A4601921F46A9
:2054400086F80080FEF7FDFA002840D0234D95F80390B9F1010F03D0B9F1020F2CD036E040
:205460001F4C8023237304F10F000A2300211022A760A373C5F808A0FBF711FC2823E373E2
:205480009DF807307F0A63749DF80630E775A3749DF8053085F80490E3749DF8043085F82A
:2054A0000F802375C7F30723A37507232B700223EB7086F800800AE0EB7B2BB1012B01D15C
:2054C000EB7003E0022B02D10122EA703370307804B0BDE8F08700BF780000207C1F0020E4
:2054E0005C1F002062F07F020A7506224A7503F47F42B2F5407FCB8208BF40F2094330B543
:20550000039DBDF8104018BF00230B834C832A462346BDE83040FFF729BA73B51546214ED6
:20552000002233680C468DE828004FF48073FFF7D9FF002834D13368082D1A7884F822206E
:205540005A7884F82320D9789A7802EB0122A2841A7984F826205A7984F827209A7984F8A7
:205560002820DA7984F829201AD9597A1A7A02EB01226285D97A9A7A02EB0122A285597B08
:205580001A7B02EB0122E2859A7B84F83020DA7B84F831201A7C84F832205B7C84F83330E2
:2055A00002B070BD4C1F002073B5124E1C46BDF8185042F4407332688DE824000022FFF746
:2055C00091FFA8B931684B78032B11D10B780246023BAB42A8BF2B469BB29A4206D28D18FB
:2055E000AD78023204F8015B92B2F6E70023237002B070BD4C1F002030B5002405250C7505
:205600004D75CA820C834C8322462346BDE83040FFF7ACB930B5002409250C754D75CA8217
:205620000C834C8322462346BDE83040FFF79EB930B501250D750A830B2500224D75CB825E
:205640004A831346BDE83040FFF790B970B5002503260D754E75CA820B834D832A462B468D
:20566000BDE87040FFF782B970B5002501260D754E75CA820B834D832A462B46BDE870400E
:20568000FFF774B910B502240C755B0101244C7512F0800F4FF000040344CC820A834C8374
:2056A0004FF0000214BF83F8C84183F8C941BDE810401346FFF75AB92DE9F04F89B0079150
:2056C0001978017059784170DC78997801EB04214180197901715C7944719C798471DC7922
:2056E000C4711C7A0472BDF84840092C40F2B380022900F2B2805B49092491F800804D8894
:205700004188A14240F2A28019780B440C445978A4B20429F4D193F8039093F802E0B9F10B
:20572000020FEDD819781F7901915979032F029199790391D9790491197A059104D9494B1A
:2057400083F800805D8088E05FFA8EFA4FFA8AF6079906EBC60C61444FF0180C0CFB06F6F1
:20576000069600264FFA86FCBC45C9DA93F800C06344644493F801C0A4B2BCF1050FF1D139
:205780004FFA8AFCE04517D09DF8045081F802E00D7004254D709DF8085081F803904D71D0
:2057A0009DF80C500F718D719DF81050F046CD719DF814500D721DE093F804C093F805B00D
:2057C0000CEB0B2C65459BDC9DF8045081F802E00D7004254D709DF8085081F803904D711C
:2057E0009DF80C500F718D719DF81050CD719DF814500D72069D93F800B04FFA86FC05EBF6
:20580000CC0C02F80CB002EB0C0593F801C0013685F801C093F802C0F6B285F802C093F87C
:2058200003C085F803C093F805B093F804C00CEB0B2CA5F804C093F806C085F806C093F828
:2058400005C01D7905EB0C25ADB28BE7054B00205880187002E0002000E0032009B0BDE8C8
:20586000F08F00BF1820002073B516460B4D00222B680C468DE848004FF40073FFF732FE16
:2058800048B9009604F1340004F13E0104F150022B68FFF711FF02B070BD00BF4C1F00200B
:2058A00002780B8813440B8003781844704700BF30B55848584987B0884203D0574A121AE5
:2058C000FBF706FA5648574A0021121AFBF7E7F9554B10229A614FF6FF72A3F58033DA6070
:2058E0004FF088325A601A60FAF732FC38B94F4B4F4A1B681268591C01D09D4690474D4BA3
:205900004D4A13604D4A1360FAF7ECFFFBF7E0F8FDF751FBC820FBF77FF8FBF77CFBFBF7E1
:20592000ABFB474B1D781C46012D05D0022D1DD14448FAF757FC19E01421434A434B01A856
:20594000FAF7C2FF00200146024601ABFBF792FE0020024629463E4BFBF78CFE28462946FF
:2059600000223C4BFBF786FEFBF7F4FE0120FAF725FCFDF7D5FB3848FDF7E6FB0020FAF7C7
:20598000FBFB0120FAF7F8FB2178012905D100204FF0FF32314BFBF76DFE3148FAF722FC82
:2059A000304C314904F674600122FCF775FF014610B1FDF7CFFBF3E72C48FAF7D5FD034679
:2059C00030B994F84C31E3B101A81421284A02E0284A01A81421FAF777FF01A8FAF702FCC0
:2059E00094F8703C1BB90020FAF7C6FB09E00F4C2046FAF71FFD204B04F500649C42F7D1A4
:205A0000F1E70020FAF7DAFBFBF72CF8002007B030BD00BF000000207C6600087C00002089
:205A2000800600201C200020001002400080000804800008EFBEADDE800200208000002084
:205A400084170020D2650008D6650008DC650008E9650008EB650008F1120020F965000889
:205A6000046600088006002065660008150200080E6600080866000800F8030800002110F6
:205A8000422063308440A550C660E770088129914AA16BB18CC1ADD1CEE1EFF131121002E2
:205AA00073325222B5529442F772D662399318837BB35AA3BDD39CC3FFF3DEE3622443341E
:205AC00020040114E664C774A44485546AA54BB528850995EEE5CFF5ACC58DD55336722662
:205AE00011163006D776F6669556B4465BB77AA719973887DFF7FEE79DD7BCC7C448E5581E
:205B00008668A7784008611802282338CCC9EDD98EE9AFF9488969990AA92BB9F55AD44AE1
:205B2000B77A966A711A500A333A122AFDDBDCCBBFFB9EEB799B588B3BBB1AABA66C877C1D
:205B4000E44CC55C222C033C600C411CAEED8FFDECCDCDDD2AAD0BBD688D499D977EB66E61
:205B6000D55EF44E133E322E511E700E9FFFBEEFDDDFFCCF1BBF3AAF599F788F8891A9813B
:205B8000CAB1EBA10CD12DC14EF16FE18010A100C230E3200450254046706760B9839893E1
:205BA000FBA3DAB33DC31CD37FE35EF3B1029012F322D2323542145277625672EAB5CBA51D
:205BC000A89589856EF54FE52CD50DC5E234C324A01481046674476424540544DBA7FAB761
:205BE0009987B8975FE77EF71DC73CD7D326F2369106B01657667676154634564CD96DC91D
:205C00000EF92FE9C899E9898AB9ABA94458654806782768C018E1088238A3287DCB5CDBE0
:205C20003FEB1EFBF98BD89BBBAB9ABB754A545A376A167AF10AD01AB32A923A2EFD0FED1C
:205C40006CDD4DCDAABD8BADE89DC98D267C076C645C454CA23C832CE01CC10C1FEF3EFF60
:205C60005DCF7CDF9BAFBABFD98FF89F176E367E554E745E932EB23ED10EF01E0233FF005B
:205C80000000000000000000000000000000000202013C01C800070A000000B80B00000026
:205CA000000000010050002C01D007010100000000030C0F30333C3FC0C3CCCFF0F3FCFF95
:205CC0000210200021007F2200A0C0A1C8D580D300408D14DA02818FD9F1DB20A4A62E00D5
:205CE0000000000000000000000000000000007C000000000006000000001C001C000000EA
:205D00000000000020F82020F820010701010701007008FC08C8000202070201182498409B
:205D200020100201000609060080586498400003040403040000000E0000000000000000E7
:205D4000000000F00C0200000001060800020CF00000000806010000004050A05040000069
:205D600001000100004040F0404000000001000000000000000000080A0600000040404058
:205D8000404000000000000000000000000000000606000000008040300C00060100000074
:205DA00000F8844424F8000304040403001008FC00000000000700000008048444380006C8
:205DC0000504040400044464548C00020404040300C0B08CC080000000000700007C4444CE
:205DE000448400020404040300E0382424C0000304040403000404E41C0400000700000085
:205E000000B8444444B800030404040300788484847800040402010000003030000000004D
:205E20000303000000003030000000080A060000000040A010000000000001000020202093
:205E40002020000101010101000010A040000000010000000004C44444380000060000007E
:205E600000E010C808F000010204050100F0888488F000070000000700FC444444B800075C
:205E80000404040300F00804040800030404040200FC040408F000070404020100FC444448
:205EA000440400070404040400FC4444440400070000000000F0080444C800030404040792
:205EC00000FC404040FC000700000007000004FC0400000004070400000004FC04000004E1
:205EE0000403000000FC8040B00C00070000010600FC0000000000070404040400FC30C016
:205F000030FC00070001000700FC304080FC00070000010700F8040404F800030404040341
:205F200000FC8484847800070000000000F8040404F8000304060C0B00FC4444C4380007B3
:205F400000000106003844444488000204040403000404FC040400000007000000FC00008E
:205F600000FC000304040403003CC000C03C00000106010000FC00F000FC0000070007001D
:205F8000000CB040B00C000601000106001C6080601C00000007000000048444340C0006AA
:205FA00005040404000000FE02020000000F0808000C30408000000000000106000202FEAA
:205FC00000000008080F0000001008FC08100000000700000000000000000004040404045B
:205FE0000000020408000000000000000000909090E000030404040700FE201010E00007C8
:206000000404040300E01010102000030404040200E0101010FE00030404020700E090900E
:2060200090E00003040404020010FC12120000000700000000E0101010F000032424221F1C
:2060400000FE201010E0000700000007000010F60000000000070000001010F600000000F1
:20606000201F000000FE80C02010000700000106000002FE000000000007000000F010E07E
:2060800010E000070007000700F0201010E000070000000700E0101010E0000304040403DB
:2060A00000F0201010E0003F0404040300E0101010F000030404023F0000F0201010000006
:2060C000070000000060909090100004040404030010FC10100000000304040000F000005F
:2060E00000F000030404020700708000807000000106010000F000E000F0000007000700E6
:2061000000304080403000060100010600F0000000F00020130C03000010109070100004BB
:20612000070404040000404CB202000000060908000000FC00000000000700000002B24CF2
:2061400040000008090600000804040808040000000000003F065B4F666D7D077F6F777C9D
:20616000585E79716F74040E003800545C7367506D781C0000766E00809A45418E418F8015
:206180004545454949498E8F9092924F994F555559999A9B9C9D9E9F41494F55A5A5A6A741
:2061A000A8A9AAABACADAEAFB0B1B2B3B4B5B6B7B8B9BABBBCBDBEBFC0C1C2C3C4C5C6C7EF
:2061C000C8C9CACBCCCDCECFD0D1D2D3D4D5D6D7D8D9DADBDCDDDEDFE0E1E2E3E4E5E6E7CF
:2061E000E8E9EAEBECEDEEEFF0F1F2F3F4F5F6F7F8F9FAFBFCFDFEFF01030507090E101282
:206200001416181C1E00C700FC00E900E200E400E000E500E700EA00EB00E800EF00EE004A
:20622000EC00C400C500C900E600C600F400F600F200FB00F900FF00D600DC00A200A300AE
:20624000A500A7209201E100ED00F300FA00F100D100AA00BA00BF001023AC00BD00BC0047
:20626000A100AB00BB009125922593250225242561256225562555256325512557255D2584
:206280005C255B251025142534252C251C2500253C255E255F255A25542569256625602581
:2062A00050256C25672568256425652559255825522553256B256A2518250C2588258425DF
:2062C0008C2590258025B103DF009303C003A303C303B500C403A6039803A903B4031E22F8
:2062E000C603B50329226122B1006522642220232123F7004822B0001922B7001A227F202C
:20630000B200A025A0007D1D0100632C001E9601A01E5A01001F0806101F0606201F0806B9
:20632000301F0806401F0606511F0700591F521F5B1F541F5D1F561F5F1F601F0806701FBD
:206340000E00BA1FBB1FC81FC91FCA1FCB1FDA1FDB1FF81FF91FEA1FEB1FFA1FFB1F801FD3
:206360000806901F0806A01F0806B01F0400B81FB91FB21FBC1FCC1F0100C31FD01F020692
:20638000E01F0206E51F0100EC1FF31F0100FC1F4E21010032217021100284210100832108
:2063A000D0241A05302C2F04602C0201672C0601752C0201802C6401002D260841FF1A03A5
:2063C000000061001A03E0001703F8000703FF000100780100013001320106013901100113
:2063E0004A012E017901060180014D004302810182018201840184018601870187018901DC
:206400008A018B018B018D018E018F0190019101910193019401F6019601970198019801F6
:206420003D029B019C019D0120029F01A001A001A201A201A401A401A601A701A701A90111
:20644000AA01AB01AC01AC01AE01AF01AF01B101B201B301B301B501B501B701B801B80119
:20646000BA01BB01BC01BC01BE01F701C001C101C201C301C401C501C401C701C801C701C1
:20648000CA01CB01CA01CD011001DD0101008E01DE011201F3010300F101F401F401F8018F
:2064A0002801220212013A020900652C3B023B023D02662C3F0240024102410246020A01FF
:2064C0005302400081018601550289018A0158028F015A0290015C025D025E025F029301C9
:2064E0006102620294016402650266026702970196016A02622C6C026D026E029C0170021D
:2065000071029D01730274029F0176027702780279027A027B027C02642C7E027F02A6014A
:2065200081028202A9018402850286028702AE014402B101B20145028D028E028F029002A9
:206540009102B7017B030300FD03FE03FF03AC0304008603880389038A03B1031103C203FF
:206560000200A303A303C4030803CC0303008C038E038F03D8031801F2030A00F903F30392
:20658000F403F503F603F703F703F903FA03FA033004200350041007600422018A0436011B
:2065A000C1040E01CF040100C004D004440161052604000066665F676F74656B2A2E757044
:2065C00064002052440043524300434C520050524700555044004646202573005570646148
:2065E000746520466C617368007600302E392E3237613A3235364B420020202020205B2030
:2066000020205D0055534200462530327500452530327500303132333435363738394142E0
:20662000434445460030313233343536373839616263646566004E6F6E650031363032206D
:206640004C43440025752D446967697420372D536567204C4544002530337500464154003F
:20666000464154333200222A3A3C3E3F7C7F002B2C3B3D5B5D004E2F4100000030170020F4
:2066800001000000A5300008A7300008B5300008B7300008B9300008C5300008C730000874
:2066A000C9300008CB300008CD300008CF300008D1300008D3300008D5300008D73000089A
:2066C000DB300008E9300008EB3000085400002017420008F94100081B420008034200089A
:1866E0000D420008814F0008494F00083D4F000859500008030000008B
:2080000018070020555D01083D8500083D8500083D8500083D8500083D8500083D850008AA
:208020003D8500083D8500083D850008118200083D8500083D8500083D8500083D8500081F
:208040003D8500083D8500083D8500083D8500083D8500083D850008010000202D8C000882
:208060003D8500083D850008218D00083D850008D9950008ED9400080DC800083D85000846
:208080003D8500083D8500083D8500083D8500083D8500083D8500083D850008818D000844
:2080A0003D8500083D8500083D8500083D8500083D8500083D85000801C000083D85000871
:2080C0003D850008E1C7000889CE00083D8500083D8500083D8500083D8500083D850008D5
:2080E0003D8500083D8500083D8500089D9400083D8500083D8500083D8500083D850008C1
:208100003D8500083D8500083D8500083D8500083D8500083D8500083D8500083D8500080F
:208120003D8500083D8500083D8500083D8500083D8500083D8500083D8500083D850008EF
:208140003D8500083D8500083D8500083D350108044A0330136820F003001844106018460D
:20816000704700BF180700200248C0F1005000F580307047182E0020034B1868C0F100506E
:2081800000F58030704700BF18070020014A024B1A607047182E0020180700202DE9F14FC1
:2081A000C0F800D010468847009A0021116001B0BDE8F08F38B5036804461BB3EFF3148328
:2081C0009D0702D5104B186000DFEFF309814FF0FF330B600D4B8B61CB6903F08073CB61A0
:2081E0002268A2F12005680742BFA2F1240543F40073CB612846202203F077FF85F3098819
:208200000023236038BD00BF1C070020AE81000810B5034C2068FFF7CDFF0023236010BDB9
:208220001C07002020F02003413B192B08D9A0F13003092B04D9A0F12D03584258417047A7
